:020000040800F2
:100000006843002005010008C72300084B1D0008B5
:10001000C52300089D010008DD2D00080000000038
:100020000000000000000000000000006D2B000830
:100030001D04000800000000912A00086F2B000832
:100040001F0100081F0100081F0100081F01000810
:100050001F0100081F0100081F0100081F01000800
:100060001F0100081F0100081F0100081F010008F0
:100070001F0100081F0100081F0100081F010008E0
:100080001F0100081F0100081F0100081F010008D0
:100090001F0100081F0100081F0100081F010008C0
:1000A0001F0100081F0100081F0100081F010008B0
:1000B0001F0100081F0100081F0100081F010008A0
:1000C0001F0100081F0100081F0100081F01000890
:1000D0001F0100081F0100081F0100081F01000880
:1000E0001F0100081F0100081F010008DFF810D0E1
:1000F00000F042F80048004745300008AFF30080A8
:10010000684300200648804706480047FEE7FEE7B0
:10011000FEE7FEE7FEE7FEE7FEE7FEE7FEE7FEE7B7
:10012000D12B0008ED000008D2B201E000F8012B4D
:10013000491EFBD270470022F6E710B513460A4667
:1001400004461946FFF7F0FF204610BD30B50B46B8
:10015000014600202022012409E021FA02F59D42F7
:1001600005D303FA02F5491B04FA02F52844151ECB
:10017000A2F10102F1DC30BD064C074D06E0E0685B
:1001800040F0010394E8070098471034AC42F6D3DE
:10019000FFF7B0FF6884000888840008FEE70000CD
:1001A00070B50C4C00220121204600F00EFD0A4DD6
:1001B00000221021284600F008FD012208212846CF
:1001C00000F003FD01220221204600F0FEFC002089
:1001D00070BD0000000C01400008014001B54FF463
:1001E0007A7301226946024801F04AFB08BD00000B
:1001F000680200202DE97C4F00F07AF8254C04219C
:10020000204600F0DDFCA0BB0421204600F0D8FC15
:100210000028F9D004211F4800F0D2FC0128F9D0B1
:1002200000F042F8064600F03FF8804600F03CF847
:10023000054600F039F8044600F036F8019000F069
:10024000ADF800220421134800F0BFFC372000F075
:10025000A9FB012204210F4800F0B7FC06EB0800BF
:10026000284401190198814204D1C346AA46A146F7
:10027000009602E008A002F0B3FD0099384661F351
:1002800007006BF30F206AF3174069F31F60BDE8A6
:100290007C8F0000000801406572726F72206368F5
:1002A00065636B206468740070B5104E00240421EF
:1002B000304600F085FC0028F9D01E2000F072FBCB
:1002C0006806050E0421304600F07AFC012801D1B1
:1002D00045F001050421304600F072FC0128F9D0F8
:1002E000641CE4B2082CE2D3284670BD000801402B
:1002F00010B500F053F80E4C01220421204600F006
:1003000064FC012000F03CFB00220421204600F0A8
:100310005CFC142000F034FB01220421204600F094
:1003200054FC1E2000F03EFBBDE8104000F002B877
:100330000008014000B585B00020019002900390B4
:100340001448816941F010018161816901F0100157
:100350000491816941F020018161816901F02001EE
:100360000491816941F004018161816901F0040116
:100370000491816941F0080181618069694600F05A
:100380000800049004200090034800F029FB05B009
:1003900000BD0000001002400008014010B586B00A
:1003A000002000900190029003901A48816941F06A
:1003B00010018161816901F010010491816941F0AE
:1003C00020018161816901F020010491816941F07E
:1003D00008018161816901F008010491816941F09E
:1003E0000401816180690C4C00F00400049001223A
:1003F0000421204600F0E9FB04200121CDE90001A1
:100400000320CDE902106946204600F0E9FA06B063
:1004100010BD0000001002400008014070470000BD
:100420002DE9F047814610268A464FF494783046ED
:1004300000F0B4F80024002504FB06F709EB0500E2
:10044000385C00F0C7F86D1CADB2B542F6D3641C41
:10045000A4B24445EFD3922000F0A0F8132000F09E
:100460009DF80024002504FB06F700BF0AEB0500F9
:10047000385C00F0AFF86D1CADB2B542F6D3641C29
:10048000A4B24445EED3922000F088F8122000F088
:1004900085F8BDE8F04700F04FB8000010B5254CD6
:1004A00001220221204600F090FBC82000F068FAEB
:1004B00000220221204600F088FB012000F060FAB3
:1004C00001220221204600F080FBC82000F058FAEB
:1004D000062000F063F8172000F07CF8172000F0E9
:1004E00079F8172000F076F8042000F057F800F0B3
:1004F00023F8002000F052F88F2000F06BF8502015
:1005000000F04CF8772000F065F8612000F046F824
:10051000802000F05FF8012000F05CF8282000F057
:1005200059F8822000F03AF8BDE810400A2000F0A7
:1005300051B80000000C014010B509A002F050FCB9
:100540000D4C02E0642000F01BFA4021204600F030
:1005500037FB0028F6D0BDE8104008A002F040BCF0
:1005600044656275673A20652D506170657220623E
:100570007573790D0A00000000080140446562753A
:10058000673A20652D50617065722062757379201D
:1005900072656C656173650D0A00000070B50546F3
:1005A00000220121094800F010FB094C0022102113
:1005B000204600F00AFB2846FFF710FE2046BDE863
:1005C00070400122102100F000BB0000000C01402F
:1005D0000008014070B5054601221146094800F0A7
:1005E000F4FA094C00221021204600F0EEFA2846C9
:1005F000FFF7F4FD2046BDE870400122102100F015
:10060000E4BA0000000C01400008014010B50220CF
:10061000FFF7C4FFFFF790FF0720FFF7BFFFBDE81C
:100620001040A520FFF7D6BF2DE9F0470746ADF5EE
:10063000155D0C4668A002F0D3FBFFF72FFF4FF4C7
:10064000FA7000F09DF96BA002F0CAFB4FF49456CB
:1006500008AD31462846FFF76EFDA9460DF59555C4
:1006600031462846FFF767FDA846FF254FF48776F9
:100670004FF4947A3346524680214846009502F062
:1006800055F93346524680214046009502F04EF916
:10069000484602F069F9FF2001F096FE404602F05C
:1006A00063F9FF2001F090FE404602F05DF9FF2063
:1006B00001F08AFE574801F0D9FE484602F054F98D
:1006C000FF2001F081FE00260296039604960DF1AC
:1006D000080AE378A27850A1504602F091FBCDE9D8
:1006E00000564F4B52460A21322002F0E1F805969F
:1006F000069607960DF1140A6378227846A15046B3
:1007000002F07EFBCDE90056454B52460A21C3203C
:1007100002F0CEF8CDE900653A88414B4B213920F3
:1007200001F0BCFFCDE900657A883D4B4B21CA2022
:1007300001F0B4FFA178E07801EB810100EB41000A
:100740004FF4C8752A46C82100F080F8354900F0FA
:10075000E9F8344A3E21282000F088F82078502219
:10076000282100F073F82F49683100F0DBF82D4A9A
:100770003E216832BB2000F079F838884FF42F72A0
:10078000294600F063F82749D03100F0CBF8254A1C
:100790007D21D032282000F097F87888642200214B
:1007A00000F054F8204900F0BDF81F4A7D21BB201D
:1007B00000F08AF81DA002F013FB41464846FFF7FF
:1007C0002FFE1EA002F00CFBFFF720FF0DF5155DBC
:1007D0000020BDE8F08700004550445F32494E39A3
:1007E000424320616972207175616C697479210DD1
:1007F0000A000000652D506170657220496E6974B1
:1008000020616E6420436C65617220646F6E650DBB
:100810000A000000C031000825642E256400000095
:10082000100000201C000020540100204550445FAF
:10083000446973706C61790D0A000000476F746F32
:1008400020536C6565702E2E2E0D0A00904201DB40
:100850001E207047884201DC00207047521A401A5F
:10086000C0EB0010400090FBF2F070472DE9F84318
:1008700015460F46814600244FF0010815E000BFE1
:1008800055F8240009EB84013A1A0E460AA002F03A
:10089000A7FACDF8008035F824000223381A81B277
:1008A000B0B2002201F062FF641C686EA042E7DC77
:1008B0000020BDE8F88300007061696E7420256433
:1008C0002025640D0A0000002DE9FE4316460F4660
:1008D0008046002418E000BF56F8240008EB840589
:1008E0003A1A29460BA002F07BFA00200221CDE93A
:1008F0000001029036F82400AAB2381A83B2A8B2D6
:10090000394601F045FE641C706EA042E4DC002014
:10091000BDE8FE837061696E742025642025640D36
:100920000A00000070B50C460646002510A054F8D9
:10093000251002F055FA6D1C192DF7DB0DA0616E24
:1009400002F04EFA606E182805DC44F82060606EF4
:10095000401C606609E0002104EB8100406844F817
:100960002100491C1829F7DB2666002070BD000015
:10097000256420002025640D0A00000072B6FEE701
:1009800070B5044600F026F90546601C02D0044804
:100990000078044400F01EF9401BA042FAD370BD59
:1009A000000000200D4900220B685A620A68136893
:1009B00043F00103136009684A6A8242FCD3086A63
:1009C00041F21112104207D1086A9210104203D16D
:1009D000086820F00100086070470000C002002095
:1009E0002DE9F84FDFF8B8910024A9F1040B234654
:1009F0000F2709F1040AABF1040EC9E00125A54057
:100A00002A40AA427DD1674ED1F804C0ACEB06085B
:100A1000B44532D014DCBCF1030F3AD009DCBCF190
:100A2000000F2AD0BCF1010F1CD0BCF1020F31D154
:100A30001DE0BCF1110F17D0BCF1120F2AD119E043
:100A4000B8F5881F19D006DCB8F5803F15D0B8F589
:100A5000801F1FD111E0B8F5001F0ED0B8F5041F9C
:100A600018D10AE0CB6815E0CB681B1D12E0CB68FB
:100A700008330FE0CB680C330CE08B682BB1012BF3
:100A80004FF0080303D0456104E0042302E0056150
:100A900000E00023FF2A01D8064601E000F1040629
:100AA0004FEA840501D9A5F12005D6F8008007FAA0
:100AB00005FC28EA0C0803FA05F548EA0508C6F81B
:100AC00000804D68ED0062D5374DAE6946F00106F5
:100AD000AE61AD6924F0030605F001050095334DC4
:100AE00006EB050CDCF80850A607360F07FA06F8E7
:100AF00025EA0805DFF8B880404503D14FF000082B
:100B000017E044E0DFF8AC80404502D14FF0010827
:100B10000FE0DFF8A480404502D14FF0020808E062
:100B2000DFF89880404502D14FF0030801E04FF014
:100B3000040808FA06F848EA0508CCF808804D6869
:100B4000D9F80060ED024D4601D5164300E096430A
:100B50002E604D68DAF80060AD02554601D51643A7
:100B600000E096432E604D68DBF80060AD035D4603
:100B700001D5164300E096432E604D68DEF8006014
:100B8000ED03754601D5164300E096432E60641CC4
:100B90000D682A46E5407FF431AFBDE8F88F0000CC
:100BA0000804014000001110001002400000014044
:100BB00000080140000C01400010014000140140F9
:100BC0008068084000D0012070470AB10161704779
:100BD0000904FBE70148806870470000000000201E
:100BE00070B5040025D094F83D00002520B984F8A4
:100BF0003C50204600F076FA242084F83D0020681E
:100C0000016821F0010101602068016841F40041A0
:100C100001602068016821F40041016000F0B2FB2E
:100C20004D4A6168914201D84C4900E04C498842E4
:100C300001D2012070BD4B492368B0FBF1F15E6821
:100C400026F03F060E435E606368934206D94FF478
:100C5000967359434FF47A73B1FBF3F12368491C3F
:100C60001E6A26F03F06314319626168914210D82E
:100C70004900401EB0FBF1F2521CC2F30B02042AE1
:100C800001D2042022E0B0FBF1F0401CC0F30B00C5
:100C90001CE0A268F2B301EBC10303EB0116431E93
:100CA000B3FBF6F35B1C43F480431B0549D092B3BE
:100CB00001EBC10202EB0111401EB0FBF1F0401C40
:100CC000C0F30B0040F4804040F400402168CA6942
:100CD0004CF6FF739A431043C861D4E907100143EF
:100CE0002068026822F0C00211430160D4E90301C8
:100CF00001432068826848F2FF339A4311438160C0
:100D0000D4E9050108432168CA6822F0FF021043B4
:100D1000C86001E00EE016E02068016841F00101C2
:100D200001602564202084F83D00256384F83E504E
:100D3000002070BD01EB4106431EB3FBF6F35B1CC4
:100D4000B3E70120C2E701EB4101401EB0FBF1F027
:100D5000401CC0F30B00B7E7A086010080841E0092
:100D600000093D0040420F002DE9F84F0025DDF855
:100D70002890984617468A4604460095FFF72AFFB2
:100D8000064694F83D0020287AD11923012286498D
:100D90002046009601F0E2F80028F5D194F83C00D6
:100DA00001286DD0012084F83C0020680168C90743
:100DB00003D1016841F0010101602068016821F45C
:100DC00000610160222084F83D00102084F83E007C
:100DD00025646762A4F82A80608D20857348E062EC
:100DE00033464A465146204600F0C8FF00287CD1D1
:100DF000208DDFF8BC81202768B1012814D002289B
:100E0000206801681ED041F480610160206841695A
:100E100080690090BBE020684169816900910168A8
:100E200041F400710160B2E02068016821F4806142
:100E3000016072B62068416981690091016841F4DE
:100E400000710AE041F40061016072B620684169F6
:100E500081690091016821F48061016062B696E0C9
:100E6000032865D801280CD002284B464FF0000219
:100E70004146204600960BD001F070F8A8BB0CE06C
:100E800090E032464946204601F00EF968BB71E019
:100E900001F064F848BB72B633E02068016821F4C1
:100EA0008061016072B620680069616A0870606ADA
:100EB000401C6062208D401E2085608D401E608534
:100EC0003C4846F2A8110068B0FBF1F0C0EBC0004E
:100ED00000EB80000090401E009007D02068406921
:100EE000C04340070DD50098F5E727E044F8305F90
:100EF0006773A573206940F02000206162B62573F6
:100F00001CE02068016841F40071016020680069FC
:100F1000616A0870606A401C6062218D491E2185EB
:100F2000618D491E618562B621680969017025E0FD
:100F300032464946204601F0B7F810B10120BDE81D
:100F4000F88F20680069616A0870606A401C6062FE
:100F5000208D401E81B22185608D401E60852068F5
:100F60004269D243520712D4032903D1016821F404
:100F70008061016020680069616A0870606A401CD5
:100F80006062208D401E2085608D401E6085208D12
:100F900000287FF465AF84F83D7084F83E5084F8F3
:100FA0003C50CCE70220CAE7020010000000FFFF1F
:100FB000040001000C0000202DE9F84F1F46904668
:100FC0008A460446DDF82890FFF704FE054694F8AB
:100FD0003D0020287FD11923012240492046009559
:100FE00000F0BCFF002876D194F83C00012872D0B4
:100FF000012084F83C0020680168C90703D101681A
:1010000041F0010101602068016821F40061016084
:10101000212084F83D00102084F83E00002626643C
:10102000C4F824806785608D20852D48E0622B46BA
:101030004A465146204600F017FF90B920684169A2
:101040008069009036E02A464946204601F064F85F
:1010500050B1206C042804D12068016841F400716B
:1010600001600120BDE8F88F606A2168007808619E
:10107000606A401C6062618D491E6185218D491E38
:1010800089B2218522685369DB435B070BD451B1D8
:1010900000781061606A401C6062608D401E60854F
:1010A000208D401E20852A464946204600F02AFF12
:1010B0000028CED1208D0028C5D154F83D0B016801
:1010C00041F400710160202004F81E09E67766777C
:1010D0000020C7E7FFE70220C4E70000020010007D
:1010E0000000FFFF10B586B0002100910191029130
:1010F00003910068104988421BD1104CA06940F050
:101100000800A061A069694600F0080004904FF44F
:101110004060009012200190032003900848FFF7E0
:101120005FFCE06940F48000E061E06900F4800069
:10113000049006B010BD00000058004000100240AE
:10114000000C0140024881680278114481607047B8
:1011500000000020074810B5016841F0100101604F
:10116000032000F067F80F2000F006F800F024F8E4
:10117000002010BD0020024070B50D4D04464FF414
:101180007A712878B1FBF0F00A490968B1FBF0F0F8
:1011900000F02DFC48B9102C07D200222146501E29
:1011A00000F028F800206C6070BD012070BD0000C8
:1011B000000000200C0000200C4808B5816941F0B7
:1011C00001018161816901F001010091C16941F072
:1011D0008051C161C06900F08050009004484168AE
:1011E00021F0E06141F00071416008BD0010024053
:1011F00000000140F0B40E4B1B680C46C3F3022301
:10120000C3F10705042D00D90425191D072901D2B2
:10121000002300E0DB1E012606FA05F1491E2140ED
:1012200099409E40761E16403143F0BC01F0FCBD53
:101230000CED00E0064900F0070208684FF6FF03D6
:10124000184040EA0220034A10430860704700003B
:101250000CED00E00000FA052DE9F0470F4605000F
:1012600061D0434E306800F00700B84209D23068C0
:1012700020F0070038433060306800F00700B842C3
:1012800051D128683B4C810712D5400703D56068CF
:1012900040F4E06060602878000703D5606840F49F
:1012A000605060606068A96820F0F00008436060EA
:1012B0002878C00728D06868012810D02168022843
:1012C00010D0890700292EDA616821F0030101435B
:1012D0006160FFF77FFC804641F288390DE02168AC
:1012E0008903EFE78901EDE7FFF774FCA0EB080144
:1012F000494502D90320BDE8F0876068696800F0BD
:101300000C00B0EB810FEFD1306800F00700B8425D
:101310000BD9306820F0070038433060306800F0A7
:101320000700B84201D00120E5E72878400705D53D
:101330006068E96820F4E06008436060287800078E
:1013400006D56068296920F4605040EAC1006060F9
:1013500000F038F86168084AC1F30311515CC840D5
:101360000649086006480068FFF706FF0020C2E74C
:101370000020024000100240526900080C000020CA
:10138000040000200448054900684968044AC1F384
:101390000221515CC84070470C0000200010024040
:1013A000626900080448054900684968044AC1F3B5
:1013B000C221515CC84070470C0000200010024060
:1013C000626900080E4A51680E4801F00C03042BB4
:1013D00011D0082B0FD10C48C1F38343C903C05C63
:1013E0000AD55168084AC1F34041921E515C054A32
:1013F0005043B0FBF1F07047044948437047000088
:101400000010024000127A004269000800093D0005
:101410002DE9F84F040070D02078C04DC00749D0A6
:101420006868C0F38100012807D06868C0F38100B4
:10143000022809D16868C00306D52868800339D519
:1014400060680028E7D035E06068B0F5803F0BD0D9
:1014500010B1B0F5A02F11D0286820F4803028609A
:10146000286820F4802002E0286840F4803028605A
:10147000606890B1FFF7AEFB06460AE0286840F4CA
:1014800080202860F0E700BFFFF7A4FB801B6428E2
:1014900073D828688003F7D50CE0FFF79BFB06465E
:1014A00005E000BFFFF796FB801B6428F0D8286892
:1014B0008003F7D420789A4E80074FF001094FF04F
:1014C000000839D5686810F00C0F07D06868C0F3C1
:1014D0008100022809D16868C00306D42868800703
:1014E00014D52069012808D110E02069B0B1C6F8F0
:1014F0000090FFF76FFB074605E00AE1FFF76AFB84
:10150000C01B0228C4D828688007F7D528686169FD
:1015100020F0F80040EAC10028600DE0C6F8008025
:10152000FFF758FB074604E0FFF754FBC01B0228F7
:1015300023D828688007F7D4207800072CD579486D
:10154000A169D9B1C0F80090FFF744FB074604E059
:10155000FFF740FBC01B02280FD8686A8007F7D549
:1015600071484FF4FA510068B0FBF1F0009000BFF1
:101570000098411E0091FAD20EE080E0C0F8008091
:10158000FFF728FB074604E0FFF724FBC01B0228F7
:1015900075D8686A8007F7D42078400760D5E86975
:1015A0000027C00008D4E86940F08050E861E8698D
:1015B000012700F0805000905C480168C90513D4F1
:1015C0000168834641F480710160FFF703FB8246A6
:1015D00006E000BFFFF7FEFAA0EB0A0064284ED831
:1015E000DBF80000C005F5D5E06801280AD008B195
:1015F000052813D0286A20F001002862286A20F00C
:10160000040002E0286A40F001002862E06841F22C
:10161000883B98B1FFF7DEFA82460BE0286A40F07B
:1016200004002862EEE700BFFFF7D4FAA0EB0A013E
:1016300059455AD8286A8007F6D50CE0FFF7CAFA50
:10164000824605E0FFF7C6FAA0EB0A0159454CD8DF
:10165000286A8007F6D41FB1E86920F08050E8615D
:10166000E06988B36968C1F38101022944D0022886
:10167000C6F8608004D0FFF7ADFA044638E034E0E5
:10168000FFF7A8FA074604E0FFF7A4FAC01B0228F8
:101690002BD828688001F7D4206AB0F5803F05D1A7
:1016A0006868A16820F4003008436860D4E9080144
:1016B0000843696821F4741108436860C6F86090B3
:1016C000FFF788FA044606E025E000BFFFF782FA3C
:1016D000001B022809D828688001F7D51BE000BF4D
:1016E000FFF778FA001B022802D90320BDE8F88F23
:1016F00028688001F4D40EE00128F7D06868226AD7
:1017000000F48031914204D1616A00F47010884283
:1017100001D00120EAE70020E8E7000000100240C5
:1017200000004242800442420C0000200070004051
:1017300070B5040009D0606A002540B1256165617B
:10174000A56294F8510040B10CE0012070BD6068C2
:10175000B0F5827FF4D0E561F2E784F8505020467E
:1017600000F040F8022084F851002068016821F060
:1017700040010160A088218900F4827001F40441D5
:101780000843A18901F400610843217C01F00201B2
:101790000843217D01F001010843218B01F4007110
:1017A0000843217F01F03801084394F8201001F02C
:1017B00080010843218D01F400510843216808602D
:1017C000A069042101EA1040216848602068C169CD
:1017D00021F40061C1616565012084F85100002099
:1017E00070BD000010B586B00021009101910291FA
:1017F00003911E4C03681E4802210322A34216D106
:10180000836943F480538361836903F480530493B1
:10181000836943F0040383618069039200F004004C
:101820000490A020CDE900016946124819E0124C4D
:10183000A34218D1C36943F48043C361C36903F46D
:1018400080430493836943F00803836180690392B2
:1018500000F0080004904FF42040CDE900016946F3
:101860000648FFF7BDF806B010BD0000003001408B
:10187000001002400008014000380040000C014008
:101880002DE9F84F044690F850000026984615467A
:101890008A4601280CD0012784F85070FFF79AF986
:1018A000814694F85100B346012804D002269AE0FC
:1018B0000220BDE8F88FBAF1000F6FD0002D6DD077
:1018C000032084F85100C4F854B0C4F830A0A586B1
:1018D000E586C4F838B0A4F83CB0A4F83EB0C4F82B
:1018E00044B0C4F840B0A068B0F5004F09D12068FA
:1018F000016821F0400101602068016841F48041E5
:10190000016020680168490603D4016841F0400184
:101910000160E068B0F5006F606803D058B3012D36
:1019200029D049E008B1012D1FD1206B2168008822
:10193000C86006E020688168890709D5216B09889D
:10194000C160206B801C2063E08E401EE0860CE0AE
:10195000FFF740F9A0EB0901414503D3B8F1FF3F80
:1019600003D006E0B8F1000F03D0E08E0028E1D1EB
:1019700025E0032635E0206B21680078087306E037
:101980002068816889070AD5216B09780173206B6B
:10199000401C2063E08E401EE0860DE01FE0FFF754
:1019A00019F9A0EB0901414503D3B8F1FF3F03D07A
:1019B000DFE7B8F1000FDCD0E08E0028E0D14A4626
:1019C0004146204601F065F808B120206065A06816
:1019D00018B92068C16880680090606D08B1012660
:1019E00001E084F8517084F850B0304661E710B5DA
:1019F000401EB0F1807F01D3012010BD4FF0E024E4
:101A000060610F21601701F00FFA0020A06107202C
:101A10002061002010BD000070B590F83C20012A24
:101A200026D0012480F83C40022280F83D20036843
:101A30005A689D6822F070060A6832435A600D4B5E
:101A400002689A4208D0B2F1804F05D00A4B9A4200
:101A500002D00A4B9A4204D1496825F08003194309
:101A6000916080F83D40002180F83C10084670BD30
:101A7000022070BD002C014000040040000800401E
:101A800010B5040003D094F83D0010B107E0012028
:101A900010BD002084F83C00204600F01FF8022012
:101AA00084F83D00211D206801F094F8012084F89D
:101AB000460084F83E0084F83F0084F8400084F833
:101AC000410084F8420084F8430084F8440084F81C
:101AD000450084F83D00002010BD000008B50068F6
:101AE000B0F1804F08D10548C16941F00101C161E1
:101AF000C06900F00100009008BD00000010024025
:101B000070B5044690F83C000025012817D0012646
:101B100084F83C60022084F83D002068826822F04E
:101B2000770222F47F4282600868502838D00DDCAA
:101B300020284FD005DC90B3102811D14AE00220B4
:101B400070BD302846D040280AD13BE060282FD015
:101B500070280DD0B0F5805F03D0B0F5005F12D0D3
:101B6000012584F83D60002084F83C00284670BDC3
:101B7000CB68D1E90121206801F062F82068816812
:101B800041F0770109E0CB68D1E90121206801F03B
:101B900057F82068816841F480418160E1E719E0ED
:101BA000CA684968206801F05DF85021206806E0A5
:101BB000CA684968206801F066F86021206801F071
:101BC00049F8CEE7CA684968206801F04BF840211F
:101BD0002068F4E7226801461046F0E770B504007B
:101BE00004D094F84100002510B106E0012070BD3A
:101BF00084F84050204600F023F8242084F8410067
:101C00002068C16821F40051C160204601F04EF8FF
:101C10002068016921F4904101612068416921F047
:101C20002A0141612068C16841F40051C1606564C6
:101C3000202084F8410084F842006563002070BDD4
:101C400030B585B000240094019402940394006898
:101C50001449884224D11448816941F4804181614A
:101C6000816901F480410491816941F0040181613D
:101C700080690E4D00F0040004904FF40070009055
:101C8000022001900320039069462846FEF7A8FE33
:101C90002815CDE90004694628460294FEF7A0FE07
:101CA00005B030BD0038014000100240000801407E
:101CB0002DE9F843044690F841001F4616460D46AC
:101CC000202802D00220BDE8F8837DB176B1002043
:101CD0006064212084F84100FEF77CFFA6848046E2
:101CE000E684A068B0F5805F02D003E00120EAE757
:101CF000206910B12E4600250EE000260CE0802160
:101D0000204601F02FF8A0B9AEB116F8010B2168FA
:101D10004860E08C401EE084E08C43464FF00002B7
:101D200000970028EBD14FF04001204601F01AF84F
:101D300030B10320C7E735F8020BC0F30800E6E72F
:101D4000202084F841000020BDE7FEE701684A69D1
:101D5000D24352050FD46FF480624A61002140F8EB
:101D6000301F202242738173026942F00402026133
:101D70000173012070470020704700002DE9F84FE3
:101D80000446C06A1E4693460D4621680A6842F41E
:101D900080620A60082807D0012805D010F5803F2E
:101DA00002D0206B112804D12068016841F48071B1
:101DB00001604FF001195B4600224946204600961B
:101DC00000F0CCF84FF4007840B120680068C005FE
:101DD00001D5C4F840800320BDE8F88F2069DFF802
:101DE00084A0B0F5804F0FD00620216800EAD517F7
:101DF00047F0F000086133465A460AF106012046D2
:101E000000F0F4F858BB03E0E8B240F001001CE039
:101E10002168E8B2086133465A465146204600F030
:101E2000E5F8E0B92068416981690091016841F4F1
:101E3000807101605B46002249462046009600F012
:101E40008DF80028C1D147F0F100216808613346C0
:101E50005A465146204600F0C9F80028BCD001205F
:101E6000BAE7000002000100F8B50446C06A1E4649
:101E70000D461746082807D0012805D010F5803FE9
:101E800002D0206B122804D12068016841F48071CF
:101E90000160134600224FF001112046009600F029
:101EA0005DF840B120680068C00502D54FF40070AD
:101EB00020640320F8BD2069B0F5804F0ED00620C5
:101EC000216800EAD51040F0F000086133463A4638
:101ED0000B49204600F08AF878B902E005F0FE00D0
:101EE00000E0E8B221680861054933463A46891F97
:101EF000204600F07BF80028DCD00120F8BD00006F
:101F00000800010070B516460D4604461EE0204646
:101F1000FFF71CFF08B1012070BD681C16D0FEF74A
:101F200059FE801BA84200D885B920684069C0438B
:101F300040070BD5002044F8300F20216173A073B7
:101F4000216941F0200121612073E4E720684069A4
:101F5000C0434007DBD4002070BD00002DE9F047EE
:101F6000984617460D460446C1F30746DDF8209013
:101F70002AE000BFB8F1FF3F26D0FEF72BFEA0EB12
:101F80000901414502D8B8F1000F1DD12068012E8A
:101F900016D0806925EA00000004000C12D0002051
:101FA000B84211D1002044F8300F20216173A07392
:101FB000216941F02001216120730120BDE8F087F3
:101FC0004069E7E70120EBE72068012E0AD080692D
:101FD00025EA00000004000C06D00020B842C9D059
:101FE0000020EBE74069F3E70120F7E72DE9F04730
:101FF000984616460D4604464FF000094FF0200A59
:10200000C1F3074723E020684069C043400515D469
:102010002068016841F40071016021686FF48060FC
:102020004861C4F8309084F83DA084F83E90216C5B
:1020300041F00401216484F83C9021E0701C06D03A
:10204000FEF7C8FDA0EB0800B04203D816B1012F7F
:102050001FD021E02068012F15D0806925EA0000FB
:102060000004000C18D000BF44F8309F84F80DA085
:1020700084F80E90216941F02001216184F80C90D0
:102080000120BDE8F087406925EA00000004000C4B
:10209000EAD12068406901E02068806925EA0000F3
:1020A0000004000CAFD1ECE72DE9F041002590468B
:1020B0000E460446202728E04069C043C0060CD4E1
:1020C00054F8301B6FF01000486144F810596777DE
:1020D000A577206A2062257714E0FEF77BFDA0EB50
:1020E0000800B04200D886B920684069C043400665
:1020F0000BD544F8305F6773A573206940F020006A
:10210000206125730120BDE8F08120684169C94341
:102110004906D1D40020F6E770B516460D460446B0
:102120001EE02046FFF712FE08B1012070BD681CBA
:1021300016D0FEF74FFD801BA84200D885B9206855
:102140004069C04300060BD5002044F8300F202121
:102150006173A073216941F0200121612073E4E7DC
:1021600020684069C0430006DBD4002070BD000039
:102170002DE9F04385B00024334800940194029483
:102180000394816941F010018161816901F01001BE
:102190000491816941F020018161816901F0200190
:1021A0000491816941F004018161816901F00401B8
:1021B0000491816941F0080181618069234F00F039
:1021C00008004FF420450490002229463846FEF7C7
:1021D000FCFC012251033846FEF7F7FCDFF8708063
:1021E00000221B214046FEF7F0FCDFF86890002239
:1021F00003214846FEF7E9FC0095022601250396D7
:10220000CDE9015469463846FEF7EAFB1B20CDE9CB
:102210000005CDE9024669464046FEF7E1FB442051
:10222000CDE90004694640460294FEF7D9FB03203D
:10223000CDE90005CDE9024669464846FEF7D0FBE8
:1022400005B0BDE8F083000000100240001001401E
:1022500000080140000C01400D4810B50B49016019
:102260000C49416000214FF480428160C0E90312B3
:1022700041618161C1610162FEF7B2FC002803D0B7
:10228000BDE81040FEF77ABB10BD000000580040CA
:10229000BC010020A0860100104810B50E49016065
:1022A0004FF482714160002102228160C0E9031273
:1022B00001224261520282611022C0E9072141627B
:1022C00081620A21C162FFF733FA002803D0BDE81A
:1022D0001040FEF753BB10BD00300140100200203B
:1022E000104810B50E4901604FF482714160002121
:1022F0008160C1604FF400720161C0E905122022C3
:10230000C0E90721416281620A21C162FFF710FA28
:10231000002803D0BDE81040FEF730BB10BD000020
:10232000003800406802002010B586B0002416482E
:10233000009401940294039404944FF08041059416
:1023400001604821C0E901144FF6FF71C0E9031490
:102350008461FFF795FB08B1FEF710FB4FF4805046
:10236000009069460848FFF7CBFB08B1FEF706FB73
:10237000049404A904480594FFF74EFB002801D0FB
:10238000FEF7FCFA06B010BDC00200200C4810B5E4
:102390000A4901604FF4E1314160002181600C2263
:1023A000C160C0E904128161C161FFF717FC002818
:1023B00003D0BDE81040FEF7E1BA10BD003801407F
:1023C00008030020FEE7FEE730B52749CA8A022A43
:1023D00008D0042A1BD0072A18D140EA0010002296
:1023E000C3B23CE00022C3B20DE0002006E000BF13
:1023F00002FB04040D68401C80B22B554C8A8442B9
:10240000F6D8521C92B2888A9042EED830BD830131
:1024100043EA0013002243EA80030343DBB20CE0EB
:10242000002005E002FB04040D68401C80B22B551F
:102430004C8A8442F6D8521C92B2888A9042EFD8D5
:1024400030BD002006E000BF02FB04040D68401C04
:1024500080B22B554C8A8442F6D8521C92B2888A9C
:102460009042EED830BD00005003002070B500222D
:10247000094B0DE0002106E002FB04141E68055D17
:10248000491C355589B25C8A8C42F5D8521C92B2EF
:10249000998A9142EED870BD500300202DE9F05F7B
:1024A00081462A481E46DDF82CB0838888464B4575
:1024B00002D3C188414504D2BDE8F05F24A000F0FA
:1024C0008FBCB088410700D0012101EBD000203A39
:1024D000F1885043484331684FF0800A0F180025B7
:1024E0002FE0002424E000BFBBF1FF0F3A7804F096
:1024F00007012AFA01F002EA000201D00AB908E055
:1025000082B108EB050081B209EB040080B20A9A9F
:1025100006E008EB050081B209EB040080B25A46E0
:1025200000F028FAE043400700D17F1C641CA4B2ED
:10253000B088A042D8D83079400700D07F1C6D1CED
:10254000ADB2F088A842CCD8BDE8F09F500300207F
:1025500044656275673A205061696E745F447261C8
:10256000774368617220496E707574206578636581
:1025700065647320746865206E6F726D616C206491
:102580006973706C61792072616E67650D0A000075
:102590002DE9FE4F1D46304B16469A88824206D3DF
:1025A000DB888B4203D3B24201D3AB4204D2BDE8F5
:1025B000FE4F2AA000F014BC83468A46321A00D58A
:1025C000821B91466A1A002A00DD4A1B90464FF092
:1025D000FF32B34501D2012000E010460290AA4527
:1025E00000D2012209EB0804002701927F1C0E98FB
:1025F000FFB2012805D10320B7FBF0F100FB1170F9
:10260000F0B10120DDE90C2300905146584600F05E
:10261000ADF800BFB8EB440F07DCB3451AD0029900
:1026200044440BEB01001FFA80FBB9EB440FDDDBE8
:10263000AA450FD001984C4450441FFA80FAD5E7C0
:1026400001200090FF22514658460D9B00F08EF865
:102650000027DFE7BDE8FE8F500300204465627568
:10266000673A205061696E745F447261774C696E9D
:102670006520496E707574206578636565647320A4
:10268000746865206E6F726D616C20646973706C24
:1026900061792072616E67650D0A00002DE9FF4FB8
:1026A000ADF5037D8846DDE990AB814600244FF40B
:1026B000807715462646394642A8FDF73CFD394647
:1026C00002A8FDF738FD184842AA83884B4502D37B
:1026D000C188414506D215A000F082FB0DF5077DAB
:1026E000BDE8F08F0A2102A895FBF1F301FB13531B
:1026F00095FBF1F530330355641C24B2002DF3D162
:102700001146002C08DD031913F8013C8B55761C8B
:10271000641E36B224B2F4E7CDE900BA4146484619
:10272000869B00F0C5F8D9E7500300204465627528
:10273000673A205061696E745F4469734E756D200D
:10274000496E70757420657863656564732074687C
:1027500065206E6F726D616C20646973706C617955
:102760002072616E67650D0A000000002DE9F05FC0
:102770002B4D93468146AA880A981C4688464A45AE
:1027800002D3EA8842450ED226A000F029FBAA888F
:10279000494634A000F024FBEA884146BDE8F05FDA
:1027A00039A000F01DBB012801D0002634E000252F
:1027B000681E00EB440718E009EB05000026A0EBBB
:1027C000040A0EE0BAF1000F0DD408EB0600001B5E
:1027D00009D481B21FFA8AF05A4600F0CBF8761C71
:1027E00036B2B742EEDC6D1C2DB2AF42E4DCBDE880
:1027F000F09F002509EB06077F1E09E008EB0500A6
:10280000401E81B2B8B25A4600F0B4F86D1C2DB229
:10281000A542F3DB761C36B2A642EADBE7E700000E
:102820005003002044656275673A205061696E74F8
:102830005F44726177506F696E7420496E70757471
:10284000206578636565647320746865206E6F72B7
:102850006D616C20646973706C61792072616E6760
:10286000650D0A0058706F696E74203D2025642044
:102870002C205061696E742E5769647468203D2065
:10288000256420200D0A200059706F696E74203D68
:10289000202564202C205061696E742E486569677C
:1028A0006874203D20256420200D0A2000000000CF
:1028B0002DE9FC5F80461B4889460D4681884446C9
:1028C000DDF834B01E461746A14203D3C1888246C4
:1028D000A94222D2BDE8FC5F134800F081BAB0885B
:1028E000BAF804300119994203D9F18844462944C1
:1028F0008DB2F188BAF806002944814201D94446D4
:102900004D460C983346CDE900B029462046FFF7E6
:10291000C5FDB0887F1C204484B23A78002ADED1FD
:10292000BDE8FC9F500300202484000870B50D4CC6
:10293000049E0025206021816281A6810220E08220
:102940004E074FEAD10000D0401C6082A282E38192
:10295000258223B1B42B02D0A280E18070BDA1807A
:10296000E28070BD500300200149086070470000FC
:1029700050030020F0B43B4CA388834234D3E38857
:102980008B4231D32346E7891E895D89CFB15A2F07
:102990001AD0B42F1CD0B7F5877F40D10B46281A28
:1029A000401E80B2218AD9B1012916D0022904D053
:1029B000032934D1F11A491E8BB2281A401E80B265
:1029C0000EE003460846EDE7711A491E8BB2E9E7AF
:1029D000301A401E83B2681AE2E7F11A491E8BB220
:1029E0009E4201D3854203D2F0BC1FA000F0F8B98B
:1029F0001C49E58A4C8A0968022D12D0042D21D089
:102A0000072D0CD1444304EB5304DB075B0FF02587
:102A1000DD40085D1201A843DA4002430A55F0BCCC
:102A20007047444304EBD3048020002A0D5D03F07B
:102A3000070220FA02F002D028430855EFE7854349
:102A40000D55ECE7444304EB930094079B075D0F9F
:102A50000A5CC023EB409A43230EEB4013430B5414
:102A6000DDE700005003002044656275673A2045A9
:102A70007863656564696E6720646973706C6179F9
:102A800020626F756E6461726965730D0A000000E3
:102A9000704738B50B46009204460022802100F0B2
:102AA00009F8002804D0606D40F020006065032024
:102AB00038BD00002DE9F8431E469146884604467D
:102AC000089DFEF787F8401B351AFEF783F8074686
:102AD00025480068C0F3CB30684338E0701C37D01D
:102AE000FEF778F8C01BA84203D215B1009860B376
:102AF0002CE02068416821F0E00141606068B0F599
:102B0000827F0BD1A068B0F5004F02D0B0F5806F86
:102B100004D12068016821F040010160A06AB0F58D
:102B2000005F09D12068016821F40051016020682C
:102B3000016841F400510160012084F85100002037
:102B400084F850000320BDE8F8830025401E009063
:102B50002068816838EA010004D000214945BDD1D0
:102B60000020F0E70121F9E70C0000207047FEF794
:102B7000E9BA30B58FB028216846FDF7DCFA142198
:102B80000AA8FDF7D8FA01210804CDE900100024B5
:102B9000029402250491CDE907504FF4E01009900A
:102BA0006846FEF735FC08B172B6FEE70F20CDE9A6
:102BB0000A054FF48060CDE90C4002210AA80E946A
:102BC000FEF74AFB002801D072B6FEE70FB030BD19
:102BD00070470000F0B50268164B174C174D4FF0C8
:102BE0008047984205D0B84203D0A04201D0A84205
:102BF00003D122F070064A683243984205D0B842A9
:102C000003D0A04201D0A84203D122F44074CA6884
:102C100022434C6922F08002224302608A68C26229
:102C20000A688262984201D1096901630121416108
:102C3000F0BD0000002C01400004004000080040EE
:102C400010B5846842EA032224F47F440A432243F5
:102C5000826010BD826822F070020A4342F00701D0
:102C60008160704710B5036A046A24F001040462AD
:102C7000846924F0F00444EA021423F00A020A43AF
:102C80008461026210BD10B5036A046A24F0100466
:102C90000462846923F0A00324F4704444EA0232FD
:102CA00043EA01118261016210BD000070B5044663
:102CB00000680169E26821F4405111430161216912
:102CC000A0680843616908432168CA6841F20C633F
:102CD0009A430243CA6020684169A26921F44071A5
:102CE000114341611E492068884202D1FEF75AFB18
:102CF00001E0FEF747FB00EBC00101EB001260684A
:102D000064218000B2FBF0F3B3FBF1F36FF018061F
:102D10007343B2FBF0F5B2FBF0F605EB830532230B
:102D200003EB0515B5FBF1F5B6FBF1F605F0F00583
:102D300005EB0615B2FBF0F6B2FBF0F0B0FBF1F0DC
:102D40006FF01802504306EB800003EB0010B0FB5D
:102D5000F1F0216800F00F002844886070BD000089
:102D6000003801402DE9F041984617460E460446CA
:102D7000069D27E0681C25D02DB1FDF72BFFA0EBA9
:102D80000800A8421ED920680C3050E8001F21F42A
:102D9000D07140E80012002AF5D12068143050E8C4
:102DA000001F21F0010140E80012002AF5D1202087
:102DB00084F8410084F84200002084F84000032099
:102DC000BDE8F0812068006836EA000004D00020E9
:102DD000B842CFD00020F3E70120F9E7FEE700007A
:102DE0000FB4054B10B503A9044A029800F03CF853
:102DF00010BC5DF814FB00002D3000081800002006
:102E00000FB4084B10B504A902AA039800F02CF8DF
:102E1000044602A9002000F003F9204610BC5DF82A
:102E200014FB0000213000080907090E002804DB0C
:102E300000F1E02080F80014704700F00F0000F16E
:102E4000E02080F8141D704702E008C8121F08C176
:102E5000002AFAD170477047002001E001C1121F1B
:102E6000002AFBD1704700002DE9FF4F8BB09A4636
:102E70000F460546002606E025280BD052460D9940
:102E800090476D1C761C28780028F5D10FB030468D
:102E9000BDE8F08F0024A0460122604900E0044311
:102EA00015F8013F203B02FA03F00842F7D12878D9
:102EB0002E2817D115F8010F44F004042A280ED04B
:102EC0006FF02F022878A0F1300109290AD808EB09
:102ED000880102EB410100EB01086D1CF2E757F895
:102EE000048B6D1C287869283ED006DC0028CDD0E4
:102EF00063280BD0642804D136E0732810D07528DD
:102F00004BD052460D999047761C85E017F8040B7C
:102F10008DF8000000208DF80100E946012003E053
:102F200057F8049B4FF0FF3061074FF0000401D4C5
:102F30000AE0641C44450DDA8442FADB19F80410F7
:102F40000029F6D106E0641C8442FCDB19F8041069
:102F50000029F8D1264404E019F8010B52460D99D6
:102F60009047641EF8D257E001CF4FF00A0B0028BB
:102F700002DA40422D2102E0210504D52B218DF8F3
:102F80002410012103E0E10705D02021F7E70DF12E
:102F9000200908910CE00021F9E701CF4FF00A0B5E
:102FA000F9E75946FDF7D2F801F1300209F8012D91
:102FB0000028F6D1ADEB090000F1200B600701D429
:102FC0004FF00108D84502DDA8EB0B0000E000201F
:102FD0008046002406E009A85246005D0D999047FE
:102FE000641C761C08988442F5DB04E030205246CD
:102FF0000D999047761CB8F10001A8F10108F5DCA5
:1030000005E019F8010B52460D999047761CBBF16B
:103010000001ABF1010BF4DC6D1C34E70928010061
:103020000A68531C0B6010707047000013B54FF412
:103030007A73012269460248FEF73AFE00981CBDE9
:10304000080300200EB5FEF785F8FFF792FDFFF7A5
:103050008FF8FFF79BF9FFF767F9FFF71DF9FFF707
:103060003FF9FFF7F9F8FDF79BF800F055F8124C1F
:1030700000F066F80290BDF80A20BDF808100FA015
:10308000FFF7AEFEFDF7B6F801909DF80500009041
:103090009DF804309DF807209DF806100BA0FFF75F
:1030A0009FFE0FA0FFF79CFE01A902A8FDF7BCFA46
:1030B0002046FDF765FCDBE7C0D40100636F323DBD
:1030C00025642C74766F633D25642C0074656D70E7
:1030D0003D25642E25642C747A3D25642E256400DC
:1030E0000D0A000070B50446FF20002231250FE0D4
:1030F000A35C58400823060602D585EA400000E09C
:1031000040005B1EC0B213F0FF03F4D1521CD2B2D8
:103110008A42EDD370BD00001CB507A002230068F1
:1031200001906420009001AAB0210448FDF744FFFB
:103130001420FDF725FC1CBD20030000BC0100206D
:103140007FB51DA0642500680390022303AAB02167
:1031500000951A48FDF730FF1920FDF711FC0623F2
:1031600001AAB12115480095FDF7FEFD022101A835
:10317000FFF7B8FF9DF806100025814205D1BDF884
:10318000040040BA60F30F0401E065F30F0402216C
:103190000DF10700FFF7A6FF9DF80910814207D146
:1031A000BDF8070041BA204661F31F4004B070BD6E
:1031B000204665F31F40F9E720080000BC0100200D
:1031C000FFFFFFFFFFFFFFFFFFFFFFFFFFFFFFFF0F
:1031D000FF0000000000007FFF0000000000007FF3
:1031E000FCFFFFFFFFFFFF9FFCFFFFFFFFFFFF9FB5
:1031F000F3FFFFFFFFFFFFE7F3FFFFFFFFFFFFE727
:10320000E7FFFFFFFFFFFFF3E7FFFFFFFFFFFFF316
:10321000EFFFFFFFFFFFFFFBEFFFFFFFFFFFFFFBE6
:10322000DFFFFFFFFFFFFFFDDFE00FFFFFFFFFFD01
:10323000DFFFFFFFFFFFFFFDDFE007FFFFFFFFFDF9
:10324000BFFC07FFFFFFFFFEBFFDEFFFFFFFFFFE1D
:10325000BFF9FFFFFFFFFFFEBFF9E7FFFFFFFFFE24
:10326000BFF9FFFFFFFFFFFEBFF9E7FFFFFFFFFE14
:10327000BFFDFFFFFFFFFFFEBFFC0FFFFFFFFFFED5
:10328000BFE007FFFFFFFFFEBFFE1FFFFFFFFFFEC8
:10329000BFE007FFFFFFFFFEBFFFFFFFFFFFFFFED7
:1032A000BFFFFFFFFFFFFFFEBFFF3FFFFFFFFFFE70
:1032B000BFFBFFFFFFFFFFFEBFFC0FFFFFFFFFFE97
:1032C000BFF9FFFFFFFFFFFEBFF9E7FFFFFFFFFEB4
:1032D000BFFDFFFFFFFFFFFEBFF9E7FFFFFFFFFEA0
:1032E000BFF807FFFFFFFFFEBFFDEFFFFFFFFFFE81
:1032F000BFFFFFFFFFFFFFFEBFF880FFFFFFFFFEE6
:10330000BFFFFFFFFFFFFFFEBFF800FFFFFFFFFE55
:10331000BFFFFFFFFFFFFFFEBFFFFFFFFFFFFFFE3F
:10332000BFFF07FFFFFFFFFEBFFFFFFFFFFFFFFE27
:10333000BFFF77FFFFFFFFFEBFFC0FFFFFFFFFFE9A
:10334000BFEF77FFFFFFFFFEBFF8C7FFFFFFFFFEE6
:10335000BFF39FFFFFFFFFFEBFF9E7FFFFFFFFFE89
:10336000BFFCFFFFFFFFFFFEBFF9E7FFFFFFFFFE10
:10337000BFFF3FFFFFFFFFFEBFFDEFFFFFFFFFFEB1
:10338000BFFBCFFFFFFFFFFEBFF800FFFFFFFFFE09
:10339000BFECF7FFFFFFFFFEBFFFFFFFFFFFFFFEDA
:1033A000BFEEFFFFFFFFFFFEBFFFFFFFFFFFFFFEC0
:1033B000BFE0FFFFFFFFFFFEBFFFFFFFFFFFFFFEBE
:1033C000BFFFFFFFFFFFFFFEBFFFFFFFFFFFFFFE8F
:1033D000BFFFFFFFFFFFFFFEBFFFFFFFFFFFFFFE7F
:1033E000BFFFFFFFFFFFFFFEBFFFFFFFFFFFFFFE6F
:1033F000BFFFFFFFFFFFFFFEBFFFFFFFFFFFFFFE5F
:10340000BFFFFFFFFFFFFFFEBFFFFFFFFFFFFFFE4E
:10341000BFFFFFFFFFFFFFFEBFFFFFFFFFFFFFFE3E
:10342000BFFFFFFFFFFFFFFEBFFFFFFFFFFFFFFE2E
:10343000BFFFFFFFFFFFFFFEBFFFFFFFFFFFFFFE1E
:10344000BFFFFFFFFFFFFFFEBFFFFFFFFFFFFFFE0E
:10345000BFFFFFFFFFFFFFFEBFFFFFFFFFFFFFFEFE
:10346000BFFFFFFFFFFFFFFEBFFFFFFFFFFFFFFEEE
:10347000BFFFFFFFFFFFFFFEBFFFFFFFFFFFFFFEDE
:10348000BFFFFFFFFFFFFFFEBFFFFFFFFFFFFFFECE
:10349000BFFFFFFFFFFFFFFEBFFFFFFFFFFFFFFEBE
:1034A000BFFFFFFFFFFFFFFEBFFFFFFFFFFFFFFEAE
:1034B000BFFFFFFFFFFFFFFEBFFFFFFFFFFFFFFE9E
:1034C000BFFFFFFFFFFFFFFEBFFFFFFFFFFFFFFE8E
:1034D000BFFFFFFFFFFFFFFEBFFFFFFFFFFFFFFE7E
:1034E000BFFFFFFFFFFFFFFEBFFFFFFFFFFFFFFE6E
:1034F000BFFFFFFFFFFFFFFEBFFFFFFFFFFFFFFE5E
:10350000BFFFFFFFFFFFFFFEBFFFFFFFFFFFFFFE4D
:10351000BFFFFFFFFFFFFFFEBFFFFFFFFFFFFFFE3D
:10352000BFFFFFFFFFFFFFFEBFFFFFFFFFFFFFFE2D
:10353000BFFFFFFFFFFFFFFEBFFFFFFFFFFFFFFE1D
:10354000BFFFFFFFFFFFFFFEBFFFFFFFFFFFFFFE0D
:10355000BFFFFFFFFFFFFFFEBFFFFFFFFFFFFFFEFD
:10356000BFFFFFFFFFFFFFFEBFFFFFFFFFFFFFFEED
:10357000BFFFFFFFFFFFFFFEBFFFFFFFFFFFFFFEDD
:10358000BFFFFFFFFFFFFFFEBFFFFFFFFFFFFFFECD
:10359000BFFFFFFFFFFFFFFEBFFFFFFFFFFFFFFEBD
:1035A000BFFFFFFFFFFFFFFEBFFFFFFFFFFFFFFEAD
:1035B000BFFFFFFFFFFFFFFEBFFFFFFFFFFFFFFE9D
:1035C000BFFFFFFFFFFFFFFEBFFFFFFFFFFFFFFE8D
:1035D000BFFFFFFFFFFFFFFEBFFFFFFFFFFFFFFE7D
:1035E000BFFFFFFFFFFFFFFEBFFFFFFFFFFFFFFE6D
:1035F000BFFFFFFFFFFFFFFEBFFFFFFFFFFFFFFE5D
:10360000BFFFFFFFFFFFFFFEBFFFFFFFFFFFFFFE4C
:10361000BFFFFFFFFFFFFFFEBFFFFFFFFFFFFFFE3C
:10362000BFFFFFFFFFFFFFFEBFFFFFFFFFFFFFFE2C
:10363000BFFFFFFFFFFFFFFEBFFFFFFFFFFFFFFE1C
:10364000BFFFFFFFFFFFFFFEBFFFFFFFFFFFFFFE0C
:10365000BFFFFFFFFFFFFFFEBFFFFFFFFFFFFFFEFC
:10366000BFFFFFFFFFFFFFFEBFFFFFFFFFFFFFFEEC
:10367000BFFFFFFFFFFFFFFEBFFFFFFFFFFFFFFEDC
:10368000BFFFFFFFFFFFFFFEBFFFFFFFFFFFFFFECC
:10369000BFFFFFFFFFFFFFFEBFFFFFFFFFFFFFFEBC
:1036A000BFFFFFFFFFFFFFFEBFFFFFFFFFFFFFFEAC
:1036B000BFFFFFFFFFFFFFFEBFFFFFFFFFFFFFFE9C
:1036C000BFFFFFFFFFFFFFFEBFFFFFFFFFFFFFFE8C
:1036D000BFFFFFFFFFFFFFFEBFFFFFFFFFFFFFFE7C
:1036E000BFFFFFFFFFFFFFFEBFFFFFFFFFFFFFFE6C
:1036F000BFFFFFFFFFFFFFFEBFFFFFFFFFFFFFFE5C
:10370000BFFFFFFFFFFFFFFEBFFFFFFFFFFFFFFE4B
:10371000BFFFFFFFFFFFFFFEBFFFFFFFFFFFFFFE3B
:10372000BFFFFFFFFFFFFFFEBFFFFFFFFFFFFFFE2B
:10373000BFFFFFFFFFFFFFFEBFFFFFFFFFFFFFFE1B
:10374000BFFFFFFFFFFFFFFEBFFFFFFFFFFFFFFE0B
:10375000BFFFFFFFFFFFFFFEBFFFFFFFFFFFFFFEFB
:10376000BFFFFFFFFFFFFFFEBFFFFFFFFFFFFFFEEB
:10377000BFFFFFFFFFFFFFFEBFFFFFFFFFFFFFFEDB
:10378000BFFFFFFFFFFFFFFEBFFFFFFFFFFFFFFECB
:10379000BFFFFFFFFFFFFFFEBFFFFFFFFFFFFFFEBB
:1037A000BFFFFFFFFFFFFFFEBFFFFFFFFFFFFFFEAB
:1037B000BFFFFFFFFFFFFFFEBFFFFFFFFFFFFFFE9B
:1037C000BFFFFFFFFFFFFFFEBFFFFFFFFFFFFFFE8B
:1037D000BFFFFFFFFFFFFFFEBFFFFFFFFFFFFFFE7B
:1037E000BFFFFFFFFFFFFFFEBFFFFFFFFFFFFFFE6B
:1037F000BFFFFFFFFFFFFFFEBFFFFFFFFFFFFFFE5B
:10380000BFFFFFFFFFFFFFFEBFFFFFFFFFFFFFFE4A
:10381000BFFFFFFFFFFFFFFEBFFFFFFFFFFFFFFE3A
:10382000BFFFFFFFFFFFFFFEBFFFFFFFFFFFFFFE2A
:10383000BFFFFFFFFFFFFFFEBFFFFFFFFFFFFFFE1A
:10384000BFFFFFFFFFFFFFFEBFFFFFFFFFFFFFFE0A
:10385000BFFFFFFFFFFFFFFEBFFFFFFFFFFFFFFEFA
:10386000BFFFFFFFFFFFFFFEBFFFFFFFFFFFFFFEEA
:10387000BFFFFFFFFFFFFFFEBFFFFFFFFFFFFFFEDA
:10388000BFFFFFFFFFFFFFFEBFFFFFFFFFFFFFFECA
:10389000BFFFFFFFFFFFFFFEBFFFFFFFFFFFFFFEBA
:1038A000BFFFFFFFFFFFFFFEBFFFFFFFFFFFFFFEAA
:1038B000BFFFFFFFFFFFFFFEBFFFFFFFFFFFFFFE9A
:1038C000BFFFFFFFFFFFFFFEBFFFFFFF81FFFFFE08
:1038D000BFFFFFFFFFFFFFFEBFFFFFFF18FFFFFE61
:1038E000BFFFFFFFFFFFFFFEBFFFFFFF3CFFFFFE2D
:1038F000BFFFFFFF03FFFFFEBFFFFFFF7EFFFFFED7
:10390000BFFFFFFC31FFFFFEBFFFFFFF7EFFFFFE9B
:10391000BFFFFFF1FCFFFFFEBFFFFFFF3CFFFFFE0D
:10392000BFFFFFE7FE7FFFFEBFFFFFFF99FFFFFE28
:10393000BFFFFFCFFE7FFFFEBFFFFFFFC3FFFFFE06
:10394000BFFFFF9FFB7FFFFEBFFFFFFFCFFFFFFE1D
:10395000BFFFFF9FF37FFFFEBFFFFFFFDFFFFFFE05
:10396000BFFFFFCFC67FFFFEBFFFFFF01FFFFFFEC1
:10397000BFFFFFE3CE7FFFFEBFFFFFE3CFFFFFFEF2
:10398000BFFFFFF1FCFFFFFEBFFFFFCFE7FFFFFE22
:10399000BFFFFFFC11FFFFFEBFFFFFDFF3FFFFFED6
:1039A000BFFFFE3F03DFFFFEBFFFFF9FF3FFFFFEF2
:1039B000BFFFFC7FFFCFFFFEBFFFFF9FFBFFFFFEB0
:1039C000BFFFF9FFFFEFFFFEBFFFFF9FFBFFFFFE03
:1039D000BFFFF3FFFFE7FFFEBFFFFF9FF3FFFFFE09
:1039E000BFFFE7FFFF67FFFEBFFFFFDFF3FFFFFE45
:1039F000BFFFC7FFFE67FFFEBFFFFFCFE7FFFFFE72
:103A0000BFFFE7FFFE67FFFEBFFFFFE3C7FFFFFE4D
:103A1000BFFFF1FFFE6FFFFEBFFFFFC003FFFFFE12
:103A2000BFFFF8FFFCCFFFFEBFFFF01FF3FFFFFE5D
:103A3000BFFFFE7FF1CFFFFEBFFFE73FF83FFFFE76
:103A4000BFFFFF1FC39FFFFEBFFFE7BFF99FFFFE42
:103A5000BFFFFF8FFF3FFFFEBFFFEF9FF9DFFFFEBE
:103A6000BFFFFFE1FE7FFFFEBFFFE7BFF9DFFFFE05
:103A7000DFFFFFFC00FFFFFDDFFFE33FFC1FFFFD5B
:103A8000DFFFFFFF87FFFFFDDFFFF07FFE3FFFFD52
:103A9000EFFFFFFFFFFFFFFBEFFFFFFFFFFFFFFB5E
:103AA000E7FFFFFFFFFFFFF3E7FFFFFFFFFFFFF36E
:103AB000F3FFFFFFFFFFFFE7F3FFFFFFFFFFFFE75E
:103AC000FCFFFFFFFFFFFF9FFCFFFFFFFFFFFF9FCC
:103AD000FF0000000000007FFF0000000000007FEA
:103AE000FFFFFFFFFFFFFFFFFFFFFFFFFFFFFFFFE6
:103AF000FFFFFFFFFFFFFFFFFFFFFFFFFFFFFFFFD6
:103B0000FFFFFFFFFFFFFFFFFFFFFFFFFFFFFFFFC5
:103B1000FF0000000000007FFF0000000000007FA9
:103B2000FCFFFFFFFFFFFF9FFCFFFFFFFFFFFF9F6B
:103B3000F3FFFFFFFFFFFFE7F3FFFFFFFFFFFFE7DD
:103B4000E7FFFFFFFFFFFFF3E7FFFFFFFFFFFFF3CD
:103B5000EFFFFFFFFFFFFFFBEFFE2FFFFFFFFFFB6E
:103B6000DFFFFFFFFFFFFFFDDFF807FFFFFFFFFDA8
:103B7000DFFFFFFFFFFFFFFDDFF9FFFFFFFFFFFD9F
:103B8000BFFFFFFFFFFFFFFEBFF9FFFFFFFFFFFECD
:103B9000BFFFFFFFFFFFFFFEBFFCFFFFFFFFFFFEBA
:103BA000BFFFFFFFFFFFFFFEBFFC07FFFFFFFFFEA2
:103BB000BFFFFFFFFFFFFFFEBFF9FFFFFFFFFFFE9D
:103BC000BFFFBDFFFFFFFFFEBFF9FFFFFFFFFFFECF
:103BD000BFFF38FFFFFFFFFEBFFDFFFFFFFFFFFE40
:103BE000BFFE7E7FFFFFFFFEBFF807FFFFFFFFFE68
:103BF000BFFE7E7FFFFFFFFEBFF807FFFFFFFFFE58
:103C0000BFFE7E7FFFFFFFFEBFFFFFFFFFFFFFFE48
:103C1000BFFE7E7FFFFFFFFEBFFF3FFFFFFFFFFEF8
:103C2000BFFF3CFFFFFFFFFEBFFC0FFFFFFFFFFEDC
:103C3000BFFF81FFFFFFFFFEBFF9E7FFFFFFFFFEB2
:103C4000BFFFFFFFFFFFFFFEBFF9E7FFFFFFFFFE24
:103C5000BFFFFFFFFFFFFFFEBFFDEFFFFFFFFFFE08
:103C6000BFFF3FFFFFFFFFFEBFF888FFFFFFFFFE24
:103C7000BFFEDFFFFFFFFFFEBFF800FFFFFFFFFEFD
:103C8000BFFEDFFFFFFFFFFEBFFFFFFFFFFFFFFEE7
:103C9000BFFF3FFFFFFFFFFEBFFFFFFFFFFFFFFE76
:103CA000BFFFFFFFFFFFFFFEBFFC0FFFFFFFFFFE99
:103CB000BFFFFFFFFFFFFFFEBFF8C7FFFFFFFFFED5
:103CC000BFFFFFFFFFFFFFFEBFF9E7FFFFFFFFFEA4
:103CD000BFFFFFFFFFFFFFFEBFF9E7FFFFFFFFFE94
:103CE000BFFFFFFFFFFFFFFEBFFDEFFFFFFFFFFE78
:103CF000BFFFFFFFFFFFFFFEBFF800FFFFFFFFFE5C
:103D0000BFFFFFFFFFFFFFFEBFFFFFFFFFFFFFFE45
:103D1000BFFFFFFFFFFFFFFEBFFFFFFFFFFFFFFE35
:103D2000BFFFFFFFFFFFFFFEBFFFFFFFFFFFFFFE25
:103D3000BFFFFFFFFFFFFFFEBFFFFFFFFFFFFFFE15
:103D4000BFFFFFFFFFFFFFFEBFFFFFFFFFFFFFFE05
:103D5000BFFFFFFFFFFFFFFEBFFFFFFFFFFFFFFEF5
:103D6000BFFFFFFFFFFFFFFEBFFFFFFFFFFFFFFEE5
:103D7000BFFFFFFFFFFFFFFEBFFFFFFFFFFFFFFED5
:103D8000BFFFFFFFFFFFFFFEBFFFFFFFFFFFFFFEC5
:103D9000BFFFFFFFFFFFFFFEBFFFFFFFFFFFFFFEB5
:103DA000BFFFFFFFFFFFFFFEBFFFFFFFFFFFFFFEA5
:103DB000BFFFFFFFFFFFFFFEBFFFFFFFFFFFFFFE95
:103DC000BFFFFFFFFFFFFFFEBFFFFFFFFFFFFFFE85
:103DD000BFFFFFFFFFFFFFFEBFFFFFFFFFFFFFFE75
:103DE000BFFFFFFFFFFFFFFEBFFFFFFFFFFFFFFE65
:103DF000BFFFFFFFFFFFFFFEBFFFFFFFFFFFFFFE55
:103E0000BFFFFFFFFFFFFFFEBFFFFFFFFFFFFFFE44
:103E1000BFFFFFFFFFFFFFFEBFFFFFFFFFFFFFFE34
:103E2000BFFFFFFFFFFFFFFEBFFFFFFFFFFFFFFE24
:103E3000BFFFFFFFFFFFFFFEBFFFFFFFFFFFFFFE14
:103E4000BFFFFFFFFFFFFFFEBFFFFFFFFFFFFFFE04
:103E5000BFFFFFFFFFFFFFFEBFFFFFFFFFFFFFFEF4
:103E6000BFFFFFFFFFFFFFFEBFFFFFFFFFFFFFFEE4
:103E7000BFFFFFFFFFFFFFFEBFFFFFFFFFFFFFFED4
:103E8000BFFFFFFFFFFFFFFEBFFFFFFFFFFFFFFEC4
:103E9000BFFFFFFFFFFFFFFEBFFFFFFFFFFFFFFEB4
:103EA000BFFFFFFFFFFFFFFEBFFFFFFFFFFFFFFEA4
:103EB000BFFFFFFFFFFFFFFEBFFFFFFFFFFFFFFE94
:103EC000BFFFFFFFFFFFFFFEBFFFFFFFFFFFFFFE84
:103ED000BFFFFFFFFFFFFFFEBFFFFFFFFFFFFFFE74
:103EE000BFFFFFFFFFFFFFFEBFFFFFFFFFFFFFFE64
:103EF000BFFFFFFFFFFFFFFEBFFFFFFFFFFFFFFE54
:103F0000BFFFFFFFFFFFFFFEBFFFFFFFFFFFFFFE43
:103F1000BFFFFFFFFFFFFFFEBFFFFFFFFFFFFFFE33
:103F2000BFFFFFFFFFFFFFFEBFFFFFFFFFFFFFFE23
:103F3000BFFFFFFFFFFFFFFEBFFFFFFFFFFFFFFE13
:103F4000BFFFFFFFFFFFFFFEBFFFFFFFFFFFFFFE03
:103F5000BFFFFFFFFFFFFFFEBFFFFFFFFFFFFFFEF3
:103F6000BFFFFFFFFFFFFFFEBFFFFFFFFFFFFFFEE3
:103F7000BFFFFFFFFFFFFFFEBFFFFFFFFFFFFFFED3
:103F8000BFFFFFFFFFFFFFFEBFFFFFFFFFFFFFFEC3
:103F9000BFFFFFFFFFFFFFFEBFFFFFFFFFFFFFFEB3
:103FA000BFFFFFFFFFFFFFFEBFFFFFFFFFFFFFFEA3
:103FB000BFFFFFFFFFFFFFFEBFFFFFFFFFFFFFFE93
:103FC000BFFFFFFFFFFFFFFEBFFFFFFFFFFFFFFE83
:103FD000BFFFFFFFFFFFFFFEBFFFFFFFFFFFFFFE73
:103FE000BFFFFFFFFFFFFFFEBFFFFFFFFFFFFFFE63
:103FF000BFFFFFFFFFFFFFFEBFFFFFFFFFFFFFFE53
:10400000BFFFFFFFFFFFFFFEBFFFFFFFFFFFFFFE42
:10401000BFFFFFFFFFFFFFFEBFFFFFFFFFFFFFFE32
:10402000BFFFFFFFFFFFFFFEBFFFFFFFFFFFFFFE22
:10403000BFFFFFFFFFFFFFFEBFFFFFFFFFFFFFFE12
:10404000BFFFFFFFFFFFFFFEBFFFFFFFFFFFFFFE02
:10405000BFFFFFFFFFFFFFFEBFFFFFFFFFFFFFFEF2
:10406000BFFFFFFFFFFFFFFEBFFFFFFFFFFFFFFEE2
:10407000BFFFFFFFFFFFFFFEBFFFFFFFFFFFFFFED2
:10408000BFFFFFFFFFFFFFFEBFFFFFFFFFFFFFFEC2
:10409000BFFFFFFFFFFFFFFEBFFFFFFFFFFFFFFEB2
:1040A000BFFFFFFFFFFFFFFEBFFFFFFFFFFFFFFEA2
:1040B000BFFFFFFFFFFFFFFEBFFFFFFFFFFFFFFE92
:1040C000BFFFFFFFFFFFFFFEBFFFFFFFFFFFFFFE82
:1040D000BFFFFFFFFFFFFFFEBFFFFFFFFFFFFFFE72
:1040E000BFFFFFFFFFFFFFFEBFFFFFFFFFFFFFFE62
:1040F000BFFFFFFFFFFFFFFEBFFFFFFFFFFFFFFE52
:10410000BFFFFFFFFFFFFFFEBFFFFFFFFFFFFFFE41
:10411000BFFFFFFFFFFFFFFEBFFFFFFFFFFFFFFE31
:10412000BFFFFFFFFFFFFFFEBFFFFFFFFFFFFFFE21
:10413000BFFFFFFFFFFFFFFEBFFFFFFFFFFFFFFE11
:10414000BFFFFFFFFFFFFFFEBFFFFFFFFFFFFFFE01
:10415000BFFFFFFFFFFFFFFEBFFFFFFFFFFFFFFEF1
:10416000BFFFFFFFFFFFFFFEBFFFFFFFFFFFFFFEE1
:10417000BFFFFFFFFFFFFFFEBFFFFFFFFFFFFFFED1
:10418000BFFFFFFFFFFFFFFEBFFFFFFFFFFFFFFEC1
:10419000BFFFFFFFFFFFFFFEBFFFFFFFFFFFFFFEB1
:1041A000BFFFFFFFFFFFFFFEBFFFFFFFFFFFFFFEA1
:1041B000BFFFFFFFFFFFFFFEBFFFFFFFFFFFFFFE91
:1041C000BFFFFFFFFFFFFFFEBFFFFFFFFFFFFFFE81
:1041D000BFFFFFFFFFFFFFFEBFFFFFFFFFFFFFFE71
:1041E000BFFFFFFFFFFFFFFEBFFFFFFFFFFFFFFE61
:1041F000BFFFFFFFFFFFFFFEBFFFFFFFFFFFFFFE51
:10420000BFFFFFFFFFFFFFFEBFFFFF1F01FFFFFE1E
:10421000BFFFFFFFFFFFFFFEBFFFFE1C00FFFFFE13
:10422000BFFFFFFFFFFFFFFEBFFFFC38FC7FFFFE6D
:10423000BFFFFFFFFFFFFFFEBFFFF831FE3FFFFEA6
:10424000BFFFFFFFFFFFFFFEBFFFF033FF3FFFFE9B
:10425000BFFFFFFFFFFFFFFEBFFFF073FB3FFFFE4F
:10426000BFFFF9FFFFFFFFFEBFFFF1F3FF3FFFFEC0
:10427000BFFFF9FFFFFFFFFEBFFFF3C3FF3FFFFEDE
:10428000BFFFF9DFFFFFFFFEBFFFFF83873FFFFE9A
:10429000BFFFF99FFFFFFFFEBFFFFF0F333FFFFE92
:1042A000BFFFF99DFFFFFFFEBFFFFE3E793FFFFE10
:1042B000BFFFF98CFFFFFFFEBFFFFC7EFD3FFFFE4F
:1042C000BFFFF99CFFFFFFFEBFFFFCFEFD3FFFFEAF
:1042D000BFFFF9DCFFFFFFFEBFFFF8FE793FFFFEE7
:1042E000BFFFFFFFFFFFFFFEBFFFF9FF033FFFFE22
:1042F000BFFFFFFFE07FFFFEBFFFF9FFFF3FFFFEB5
:10430000BFFFFFFF801FFFFEBFFFF9FFFF3FFFFE64
:10431000BFFFF8000F1FFFFEBFFFFCFF7B3FFFFE4C
:10432000BFFFE000188FFFFEBFFFFCFEF93FFFFE5E
:10433000BFFFE7FFF04FFFFEBFFFFC7EFD3FFFFE2C
:10434000BFFFC7C00647FFFEBFFFFE3EFD3FFFFEAB
:10435000BFFFC7C00647FFFEBFFFFF0F733FFFFE53
:10436000BFFFE7FFE04FFFFEBFFFFF81873FFFFE7C
:10437000BFFFE00030CFFFFEBFFFFFE1FF3FFFFECA
:10438000BFFFF0001F8FFFFEBFFFFFF8FF3FFFFEE4
:10439000BFFFFC00061FFFFEBFFFFFF8FF3FFFFE51
:1043A000BFFFFFFFC03FFFFEBFFFFFFC7F3FFFFEE1
:1043B000DFFFFFFFF9FFFFFDDFFFFFFE3C7FFFFD9B
:1043C000DFFFFFFFFFFFFFFDDFFFFFFF00FFFFFD40
:1043D000EFFFFFFFFFFFFFFBEFFFFFFFC3FFFFFB51
:1043E000E7FFFFFFFFFFFFF3E7FFFFFFFFFFFFF325
:1043F000F3FFFFFFFFFFFFE7F3FFFFFFFFFFFFE715
:10440000FCFFFFFFFFFFFF9FFCFFFFFFFFFFFF9F82
:10441000FF0000000000007FFF0000000000007FA0
:10442000FFFFFFFFFFFFFFFFFFFFFFFFFFFFFFFF9C
:10443000FFFFFFFFFFFFFFFFFFFFFFFFFFFFFFFF8C
:10444000FFFFFFFFFFFFFFFFFFFFFFFFFFFFFFFF7C
:10445000FFFFFFFFFFFFFFFFFFFFFFFFFFFFFFFF6C
:10446000FFFFFFFFFFFFFFFFFFFFFFFFFFFFFFFF5C
:10447000FFFFFFFFFFFFFFFFFFFFFFFFFFFFFFFF4C
:10448000FFFFFFFFFFFFFFFFFFFFFFFFFFFFFFFF3C
:10449000FFFFFFFFFFFFFFFFFFFFFFFFFFFFFFFF2C
:1044A000FFFFFFFFFFFFFFFFFFFFFFFFFFFFFFFF1C
:1044B000FFFFFFFFFFFFFFFFFFFFFFFFFFFFFFFF0C
:1044C000FFFFFFFFFFFFFFFFFFFFFFFFFFFFFFFFFC
:1044D000FFFFFFFFFFFFFFFFFFFFFFFFFFFFFFFFEC
:1044E000FFFFFFFFFFFFFFFFFFFFFFFFFFFFFFFFDC
:1044F000FFFFFFFFFFFFFFFFFFFFFFFFFFFFFFFFCC
:10450000FFFFFFFFFFFFFFFFFFFFFFFFFFFFFFFFBB
:10451000FFFFFFFFFFFFFFFFFFFFFFFFFFFFFFFFAB
:10452000FFFFFFFFFFFFFFFFFFFFFFFFFFFFFFFF9B
:10453000FFFFFFFFFFFFFFFFFFFFFFFFFFFFFFFF8B
:10454000FFFFFFFFFFFFFFFFFFFFFFFFFFFFFFFF7B
:10455000FFFFFFFFFFFFFFFFFFFFFFFFFFFFFFFF6B
:10456000FFFFFFFFFFFFFFFFFFFFFFFFFFFFFFFF5B
:10457000FFFFFFFFFFFFFFFFFFFFFFFFFFFFFFFF4B
:10458000FFFFFFFFFFFFFFFFFFFFFFFFFFFFFFFF3B
:10459000FFFFFFFFFFFFFFFFFFFFFFFFFFFFFFFF2B
:1045A000FFFFFFFFFFFFFFFFFFFFFFFFFFFFFFFF1B
:1045B000FFFFFFFFFFFFFFFFFFFFFFFFFFFFFFFF0B
:1045C000FFFFFFFFFFFFFFFFFFFFFFFFFFFFFFFFFB
:1045D000FFFFFFFFFFFFFFFFFFFFFFFFFFFFFFFFEB
:1045E000FFFFFFFFFFFFFFFFFFFFFFFFFFFFFFFFDB
:1045F000FFFFFFFFFFFFF81FFFFFFFFFFFFFFFFFB2
:10460000FFFFFFFFFFFFF81FFFFFFFFFFFFFFFFFA1
:10461000FFFFFFFFFFFFF81FFFFFFFFFFFFFFFFF91
:10462000FFFFFFFFFFFFF81FFFFFFFFFFFFFFFFF81
:10463000FFFFFFFFFCFFF81FFFFFFFFFFFFFFFFF74
:10464000FFFFFFFFF87FF81FFFFFFFFFFFFFFFFFE8
:10465000FFFFFFFFF03FF81FFFFFFFFFFFFFFFFF20
:10466000FFFFFFFFE01FF81FFFFFFFFFFFFFFFFF40
:10467000FFFFFFFFE01FF81FFFFFFFFFFFFFFFFF30
:10468000FFFFFFFFE00FF81FFFFFFFFFFFFFFFFF30
:10469000FFFFFFFFE007F81FFFFFFFFFFFFFFFFF28
:1046A000FFFFFFFFE003F81FFFFFFFFFFFFFFFFF1C
:1046B000FFFFFFFFE003F81FFFFFFFFFFFFFFFFF0C
:1046C000FFFFFFFFE001F81FFFFFFFFFFFFFFFFFFE
:1046D000FFFFFFFFE000F81FFFFFFFFFFFFFFFFFEF
:1046E000FFFFFFFFE000F81FFFFFFFFFFFFFFFFFDF
:1046F000FFFFFFFFE000781FFFFFFFFFFFFFFFFF4F
:10470000FFFFFFFFE000781FFFFFFFFFFFFFFFFF3E
:10471000FFFFFFFFE020381FFFFFFFFFFFFFFFFF4E
:10472000FFFFFFFFE0200000001FFFFFFFFFFFFF74
:10473000FFFFFFFFE0300000000FFFFFFFFFFFFF64
:10474000FFFFFFFFE0380000000FFFFFFFFFFFFF4C
:10475000FFFFFFFFE03800000007FFFFFFFFFFFF44
:10476000FFFFFFFFE03C00000007FFFFFFFFFFFF30
:10477000FFFFFFFFE03C00000007FFFFFFFFFFFF20
:10478000FFFFFFFFE03FF81FFE07FFFFFFFFFFFFF8
:10479000FFFFFFFFE03FF81FFE07FFFFFFFFFFFFE8
:1047A000FFFFFFFFE03FF81FFE03FFFFFFFFFFFFDC
:1047B000FFFFFFFFE03FF81FFE03FFFFFFFFFFFFCC
:1047C000FFFFFFFFE03FF81FFE03FFFFFFFFFFFFBC
:1047D000FFFFFFFFE03FF81FFE03FFFFFFFFFFFFAC
:1047E000FFFFFFFFE03FF81FFE03FFFFFFFFFFFF9C
:1047F000FFFFFFFFE03FF81FFE07FFFFFFFFFFFF88
:10480000FFFFFFFFE03FF81FFE3FFFFFFFFFFFFF3F
:10481000FFFFFFFFE03FF81FFEFFFFFFFFFFFFFF6F
:10482000FFFFFFFFE03FF81FFFFFFFFFFFFFFFFF5E
:10483000FFFFFFFFE03FF81FFFFFFFFFFFFFFFFF4E
:10484000FFFFFFFFE03FF81FFFFFFFFFFFFFFFFF3E
:10485000FFFFFFFFE03FF81FFFFFFFFFFFFFFFFF2E
:10486000FFFFFFFFFFFFF81FFFFFFFFFFFFFFFFF3F
:10487000FFFFFFFFFFFFF81FFFFFFFFFFFFFFFFF2F
:10488000FFFFFFFFFFFFF81FFFFFFFFFFFFFFFFF1F
:10489000FFFFFFFFFFFFF81FFFFFFFFFFFFFFFFF0F
:1048A000FFFFFFFFFFFFF81FFFFFFFFFFFFFFFFFFF
:1048B000FFFFFFFFFFFFFFFFFFFFFFFFFFFFFFFF08
:1048C000FFFFFFFFFFFFFFFFFFFFFFFFFFFFFFFFF8
:1048D000FFFFFFFFFFFFFFFFFFFFFFFFFFFFFFFFE8
:1048E000FFFFFFFFFFFFFFFFC3FFFFFFFFFFFFFF14
:1048F000FFFFFFFFFFFFFFFFC07FFFFFFFFFFFFF87
:10490000FFFFFFFFFFFFFFFF801FFFFFFFFFFFFF16
:10491000FFFFFFFFFFFFFFFF800FFFFFFFFFFFFF16
:10492000FFFFFFFFFFFFFFFF8007FFFFFFFFFFFF0E
:10493000FFFFFFFFFF0000000007FFFFFFFFFFFF7B
:10494000FFFFFFFFFF0000004007FFFFFFFFFFFF2B
:10495000FFFFFFFFFF0000007C07FFFFFFFFFFFFDF
:10496000FFFFFFFFFF0000007E07FFFFFFFFFFFFCD
:10497000FFFFFFFFFF0000007E07FFFFFFFFFFFFBD
:10498000FFFFFFFFFF0000007E07FFFFFFFFFFFFAD
:10499000FFFFFFFFFF03C1E07E07FFFFFFFFFFFFF9
:1049A000FFFFFFFFFF03C1E07E07FFFFFFFFFFFFE9
:1049B000FFFFFFFFFF03C1E07E07FFFFFFFFFFFFD9
:1049C000FFFFFFFFFF03C1E07E07FFFFFFFFFFFFC9
:1049D000FFFFFFFFFF03C1E07E07FFFFFFFFFFFFB9
:1049E000FFFFFFFFFF03C1E07E07FFFFFFFFFFFFA9
:1049F000FFFFFFFFFF03C1E07E07FFFFFFFFFFFF99
:104A0000FFFFFFFFFF03C1E07E07FFFFFFFFFFFF88
:104A1000FFFFFFFFFF03C1E07C07FFFFFFFFFFFF7A
:104A2000FFFFFFFF800000000007FFFFFFFFFFFF09
:104A3000FFFFFFFF800000000007FFFFFFFFFFFFF9
:104A4000FFFFFFFF800000000007FFFFFFFFFFFFE9
:104A5000FFFFFFFF80000000000FFFFFFFFFFFFFD1
:104A6000FFFFFFFF80000000001FFFFFFFFFFFFFB1
:104A7000FFFFFFFF80000000003FFFFFFFFFFFFF81
:104A8000FFFFFFFFFE03C0E07FFFFFFFFFFFFFFF11
:104A9000FFFFFFFFFF03C1E07FFFFFFFFFFFFFFFFF
:104AA000FFFFFFFFFF03C1E07FFFFFFFFFFFFFFFEF
:104AB000FFFFFFFFFF03C1E07FFFFFFFFFFFFFFFDF
:104AC000FFFFFFFFFF03C1E07FFFFFFFFFFFFFFFCF
:104AD000FFFFFFFFFF03C1E07FFFFFFFFFFFFFFFBF
:104AE000FFFFFFFFFF03C1E07FFFFFFFFFFFFFFFAF
:104AF000FFFFFFFFFF03C1E07FFFFFFFFFFFFFFF9F
:104B0000FFFFFFFFFF03C1E07FFFFFFFFFFFFFFF8E
:104B1000FFFFFFFFFF0000000FFFFFFFFFFFFFFF92
:104B2000FFFFFFFFFF0000000FFFFFFFFFFFFFFF82
:104B3000FFFFFFFFFF0000000FFFFFFFFFFFFFFF72
:104B4000FFFFFFFFFF0000000FFFFFFFFFFFFFFF62
:104B5000FFFFFFFFFF0000000FFFFFFFFFFFFFFF52
:104B6000FFFFFFFFFF0000000FFFFFFFFFFFFFFF42
:104B7000FFFFFFFFFFFFFFFFFFFFFFFFFFFFFFFF45
:104B8000FFFFFFFFFFFFFFFFFFFFFFFFFFFFFFFF35
:104B9000FFFFFFFFFFFFFFFFFFFFFFFFFFFFFFFF25
:104BA000FFFFFFFFFFFFFFFFFFFFFFFFFFFFFFFF15
:104BB000FFFFFFFFFFFFFFFFFFFFFFFFFFFFFFFF05
:104BC000FFFFFFFFFFFFFFFFFFFFFFFFFFFFFFFFF5
:104BD000FFFFFFFFFFFFFFFFFFFFFFFFFFFFFFFFE5
:104BE000FFFFFFFFFFFFFFFFFFFFFFFFFFFFFFFFD5
:104BF000FFFFFFFFFF0007FFFFFFFFFFFFFFFFFFBC
:104C0000FFFFFFFFFF0007FFFFFFFFFFFFFFFFFFAB
:104C1000FFFFFFFFFF0007FFFFFFFFFFFFFFFFFF9B
:104C2000FFFFFFFFC10007FFFFFFFFFFFFFFFFFFC9
:104C3000FFFFFFFFC10007C00003FFFFFFFFFFFFF3
:104C4000FFFFFFFFC10007C00003FFFFFFFFFFFFE3
:104C5000FFFFFFFFC107FFC00003FFFFFFFFFFFFD4
:104C6000FFFFFFFFC10421C00003FFFFFFFFFFFFA5
:104C7000FFFFFFFFC10421C00003FFFFFFFFFFFF95
:104C8000FFFFFFFFC10421C00003FFFFFFFFFFFF85
:104C9000FFFFFFFFC10421C1060FFFFFFFFFFFFF62
:104CA000FFFFFFFFC10421C1060FFFFFFFFFFFFF52
:104CB000FFFFFFFFC10421C1060FFFFFFFFFFFFF42
:104CC000FFFFFFFFC10421C1060FFFFFFFFFFFFF32
:104CD000FFFFFFFFC10421C1060FFFFFFFFFFFFF22
:104CE000FFFFFFFFC10421C1060FFFFFFFFFFFFF12
:104CF000FFFFFFFFC10421C1060FFFFFFFFFFFFF02
:104D0000FFFFFFFFC107FFC1060FFFFFFFFFFFFF10
:104D1000FFFFFFFFC00000C1060FFFFFFFFFFFFF07
:104D2000FFFFFFFFC00000C1060FFFFFFFFFFFFFF7
:104D3000FFFFFFFFC00000C1060FFFFFFFFFFFFFE7
:104D4000FFFFFFFFC00000C1060FFFFFFFFFFFFFD7
:104D5000FFFFFFFFC00000C1060FFFFFFFFFFFFFC7
:104D6000FFFFFFFFC00000C1060FFFFFFFFFFFFFB7
:104D7000FFFFFFFFC107FFC1060FFFFFFFFFFFFFA0
:104D8000FFFFFFFFC107FFC1060FFFFFFFFFFFFF90
:104D9000FFFFFFFFC10421C1060FFFFFFFFFFFFF61
:104DA000FFFFFFFFC10421C1060FFFFFFFFFFFFF51
:104DB000FFFFFFFFC10421C1060FFFFFFFFFFFFF41
:104DC000FFFFFFFFC10421C1060FFFFFFFFFFFFF31
:104DD000FFFFFFFFC10421C1060FFFFFFFFFFFFF21
:104DE000FFFFFFFFC10421C1060FFFFFFFFFFFFF11
:104DF000FFFFFFFFC10421C1060FFFFFFFFFFFFF01
:104E0000FFFFFFFFC10421C1060FFFFFFFFFFFFFF0
:104E1000FFFFFFFFC10421C1060FFFFFFFFFFFFFE0
:104E2000FFFFFFFFC10421C1060FFFFFFFFFFFFFD0
:104E3000FFFFFFFFC107FFC1060FFFFFFFFFFFFFDF
:104E4000FFFFFFFFC10007C1FE0FFFFFFFFFFFFFD6
:104E5000FFFFFFFFC10007FFFE0FFFFFFFFFFFFF88
:104E6000FFFFFFFFC10007FFFFFFFFFFFFFFFFFF87
:104E7000FFFFFFFFFF0007FFFFFFFFFFFFFFFFFF39
:104E8000FFFFFFFFFF0007FFFFFFFFFFFFFFFFFF29
:104E9000FFFFFFFFFFFFFFFFFFFFFFFFFFFFFFFF22
:104EA000FFFFFFFFFFFFFFFFFFFFFFFFFFFFFFFF12
:104EB000FFFFFFFFFFFFFFFFFFFFFFFFFFFFFFFF02
:104EC000FFFFFFFFFFFFFFFFFF7FFFFFFFFFFFFF72
:104ED000FFFFFFFFFFC1FFFFFF3FFFFFFFFFFFFFE0
:104EE000FFFFFFFFFFC1FFFFFE1FFFFFFFFFFFFFF1
:104EF000FFFFFFFFFFC007FFFC07FFFFFFFFFFFFF4
:104F0000FFFFFFFFFFC0003FF807FFFFFFFFFFFFAE
:104F1000FFFFFFFFFFC00007E007FFFFFFFFFFFFEE
:104F2000FFFFFFFFFFC00000C00FFFFFFFFFFFFFFD
:104F3000FFFFFFFFFFC00000001FFFFFFFFFFFFF9D
:104F4000FFFFFFFFFFC00000003FFFFFFFFFFFFF6D
:104F5000FFFFFFFF80C1FE0000FFFFFFFFFFFFFF1D
:104F6000FFFFFFFF8001FE0000FFFFFFFFFFFFFFCD
:104F7000FFFFFFFF80008000007FFFFFFFFFFFFFBC
:104F8000FFFFFFFF80000000003FFFFFFFFFFFFF6C
:104F9000FFFFFFFF80000000C01FFFFFFFFFFFFFBC
:104FA000FFFFFFFFC000000FE00FFFFFFFFFFFFF4D
:104FB000FFFFFFFFFF00007E0007FFFFFFFFFFFF77
:104FC000FFFFFFFFFFF0007E0403FFFFFFFFFFFF77
:104FD000FFFFFFFFF80000FF0203FFFFFFFFFFFFDF
:104FE000FFFFFFFFF80040FF0207FFFFFFFFFFFF8B
:104FF000FFFFFFFFF8006080011FFFFFFFFFFFFFC3
:10500000FFFFFFFFF800608000BFFFFFFFFFFFFF13
:10501000FFFFFFFFF8006080007FFFFFFFFFFFFF43
:10502000FFFFFFFFFFF06080007FFFFFFFFFFFFF3C
:10503000FFFFFFFF80006080003FFFFFFFFFFFFFDB
:10504000FFFFFFFF80006083F1FFFFFFFFFFFFFF17
:10505000FFFFFFFF80006083FFFFFFFFFFFFFFFFF9
:10506000FFFFFFFF80006083FFFFFFFFFFFFFFFFE9
:10507000FFFFFFFF8000608003FFFFFFFFFFFFFFD8
:10508000FFFFFFFFFFF06080007FFFFFFFFFFFFFDC
:10509000FFFFFFFFF8006080001FFFFFFFFFFFFF23
:1050A000FFFFFFFFF80060800007FFFFFFFFFFFF2B
:1050B000FFFFFFFFF80060800007FFFFFFFFFFFF1B
:1050C000FFFFFFFFF80060FFC007FFFFFFFFFFFFCC
:1050D000FFFFFFFFC80060FFFC1FFFFFFFFFFFFF98
:1050E000FFFFFFFFC7F07FFFFF1FFFFFFFFFFFFF77
:1050F000FFFFFFFFC3E03FFFFFFFFFFFFFFFFFFFDB
:10510000FFFFFFFF80E000000003FFFFFFFFFFFF46
:10511000FFFFFFFF806000000003FFFFFFFFFFFFB6
:10512000FFFFFFFF802000000003FFFFFFFFFFFFE6
:10513000FFFFFFFF801800000003FFFFFFFFFFFFDE
:10514000FFFFFFFFE00E00000003FFFFFFFFFFFF78
:10515000FFFFFFFFF007001FFFFFFFFFFFFFFFFF45
:10516000FFFFFFFFF803C00FFFFFFFFFFFFFFFFF81
:10517000FFFFFFFFFE01E007FFFFFFFFFFFFFFFF55
:10518000FFFFFFFFFF03F007FFFFFFFFFFFFFFFF32
:10519000FFFFFFFFFF0FF81FFFFFFFFFFFFFFFFFF6
:1051A000FFFFFFFFFF9FFE7FFFFFFFFFFFFFFFFFF0
:1051B000FFFFFFFFFFFFFFFFFFFFFFFFFFFFFFFFFF
:1051C000FFFFFFFFFFFFFFFFFFFFFFFFFFFFFFFFEF
:1051D000FFFFFFFFFFFFFFFFFFFFFFFFFFFFFFFFDF
:1051E000FFFFFFFFFFFFFFFFFFFFFFFFFFFFFFFFCF
:1051F000FFFFFFFFFFFFFFFFFFFFFFFFFFFFFFFFBF
:10520000FFFFFFFFF00000000000FFFFFFFFFFFFB8
:10521000FFFFFFFFF00000004000FFFFFFFFFFFF68
:10522000FFFFFFFFF0000001F000FFFFFFFFFFFFA7
:10523000FFFFFFFFF0000007FC00FFFFFFFFFFFF85
:10524000FFFFFFFFF000001FFF00FFFFFFFFFFFF5A
:10525000FFFFFFFFF000007FFFD0FFFFFFFFFFFF1A
:10526000FFFFFFFFF00001FFFFF801FFFFFFFFFF5F
:10527000FFFFFFFFF0000FFF9FFC01FFFFFFFFFF9D
:10528000FFFFFFFFF0001FFE03FE01FFFFFFFFFF18
:10529000FFFFFFFFF0001FF800FF01FFFFFFFFFF10
:1052A000FFFFFFFFF0001FF8007F81FFFFFFFFFF00
:1052B000FFFFFFFFF0001FFE00FFC1FFFFFFFFFF2A
:1052C000FFFFFFFFF0000FFF800001FFFFFFFFFF68
:1052D000FFFFFFFFF00003FFE00001FFFFFFFFFF04
:1052E000FFFFFFFFF000007FFC0001FFFFFFFFFF5B
:1052F000FFFFFFFFF000001FFE0001FFFFFFFFFFA9
:10530000FFFFFFFFF0000007FE0001FFFFFFFFFFB0
:10531000FFFFFFFFF03FE003FE0001FFFFFFFFFF85
:10532000FFFFFFFFF01FF000FE0001FFFFFFFFFF88
:10533000FFFFFFFFF00FFE003E0001FFFFFFFFFF3A
:10534000FFFFFFFFF007FF80000001FFFFFFFFFFEF
:10535000FFFFFFFFF003FFE0000001FFFFFFFFFF83
:10536000FFFFFFFFF001FFFC000001FFFFFFFFFF59
:10537000FFFFFFFFF0001FFF000001FFFFFFFFFF27
:10538000FFFFFFFFF00007FFC00001FFFFFFFFFF6F
:10539000FFFFFFFFF00000FFF80001FFFFFFFFFF2E
:1053A000FFFFFFFFF000003FFE0001FFFFFFFFFFD8
:1053B000FFFFFFFFF000000FFE0001FFFFFFFFFFF8
:1053C000FFFFFFFFF000003FFE0001FFFFFFFFFFB8
:1053D000FFFFFFFFF00000FFFE0001FFFFFFFFFFE8
:1053E000FFFFFFFFF00007FFF80001FFFFFFFFFFD7
:1053F000FFFFFFFFF0001FFFC00001FFFFFFFFFFE7
:10540000FFFFFFFFF0001FFE000001FFFFFFFFFF97
:10541000FFFFFFFFF0001FF8000001FFFFFFFFFF8D
:10542000FFFFFFFFF0001FF8000001FFFFFFFFFF7D
:10543000FFFFFFFFF0001FFF000001FFFFFFFFFF66
:10544000FFFFFFFFF00003FFE00001FFFFFFFFFF92
:10545000FFFFFFFFF000007FFC0001FFFFFFFFFFE9
:10546000FFFFFFFFF000001FFE0001FFFFFFFFFF37
:10547000FFFFFFFFF000003FFE0001FFFFFFFFFF07
:10548000FFFFFFFFF00001FFFE0001FFFFFFFFFF36
:10549000FFFFFFFFF0000FFFFE0001FFFFFFFFFF18
:1054A000FFFFFFFFF0001FFFF80001FFFFFFFFFFFE
:1054B000FFFFFFFFF0001FFFC00001FFFFFFFFFF26
:1054C000FFFFFFFFFFC01FFE000001FFFFFFFFFF08
:1054D000FFFFFFFFFFC01FF0000001FFFFFFFFFF06
:1054E000FFFFFFFFFFC01F80000001FFFFFFFFFF66
:1054F000FFFFFFFFFFC01C00000001FFFFFFFFFFD9
:10550000FFFFFFFFFFC00000000001FFFFFFFFFFE4
:10551000FFFFFFFFFFC00000000001FFFFFFFFFFD4
:10552000FFFFFFFFFFC00000000001FFFFFFFFFFC4
:10553000FFFFFFFFFFFFFFFFFFFFFFFFFFFFFFFF7B
:10554000FFFFFFFFFFFFFFFFFFFFFFFFFFFFFFFF6B
:10555000FFFFFFFFFFFFFFFFFFFFFFFFFFFFFFFF5B
:10556000FFFFFFFFFFFFFFFFFFFFFFFFFFFFFFFF4B
:10581000FFFFFFFFFFFFFFFFFFFF00000FFFFFFF86
:10582000FFFFFFFFFFFFFFFFFFFF00000FFFFFFF76
:10583000FFFFFFFFFFFFFFFFFFFF00000FFFFFFF66
:10584000FFFFFFFFFFFFFFFFFFFF00000FFFFFFF56
:10585000FFFFFFFFFFFFFFFFFFFF00000FFFFFFF46
:10586000FFFFFFFFFFFFFFFFFFFF00000FFFFFFF36
:10587000FFFFFFFFFFFFFFFFFFFF00000FFFFFFF26
:10588000FFFFFFFFFFFFFFFFFFFF00000FFFFFFF16
:10589000FFFFFFFFFFFFFFFFFFFF020C0FFFFFFFF8
:1058A000FFFFFFFFFFFFFFFFFFFF031E0FFFFFFFD5
:1058B000FFFFFFFFFFFFFFFFFFFF033F0FFFFFFFA4
:1058C000FFFFFFFFFFFFFFFFFFFF03330FFFFFFFA0
:1058D000FFFFFFFFFFFFFFFFFFFF03F30FFFFFFFD0
:1058E000FFFFFFFFFFFFFFFFFFFF01E30FFFFFFFD2
:1058F000FFFFFFFFFFFFFFFFFFFF00C20FFFFFFFE4
:10590000FFFFFFFFFFFFFFFFFFFF00000FFFFFFF95
:10591000FFFFFFFFFFFFFFFFFFFF03020FFFFFFF80
:10592000FFFFFFFFFFFFFFFFFFFF03030FFFFFFF6F
:10593000FFFFFFFFFFFFFFFFFFFF03030FFFFFFF5F
:10594000FFFFFFFFFFFFFFFFFFFF03030FFFFFFF4F
:10595000FFFFFFFFFFFFFFFFFFFF03870FFFFFFFBB
:10596000FFFFFFFFFFFFFFFFFFFF01FE0FFFFFFF36
:10597000FFFFFFFFFFFFFFFFFFFF01FE0FFFFFFF26
:10598000FFFFFFFFFFFFFFFFFFFF00780FFFFFFF9D
:10599000FFFFFFFFFFFFFFFFFFFF00000FFFFFFF05
:1059A000FFFFFFFFFFFFFFFFFFFF00000FFFFFFFF5
:1059B000FFFFFFFFFFFFFFFFFFFF1BFF0FFFFFFFCB
:1059C000FFFFFFFFFFFFFFFFFFFF1BFF0FFFFFFFBB
:1059D000FFFFFFFFFFFFFFFFFFFF1BFF0FFFFFFFAB
:1059E000FFFFFFFFFFFFFFFFFFFF00000FFFFFFFB5
:1059F000FFFFFFFFFFFFFFFFFFFF00000FFFFFFFA5
:105A0000FFFFFFFFFFFFFFFFFFFF00FF0FFFFFFF95
:105A1000FFFFFFFFFFFFFFFFFFFF01FF0FFFFFFF84
:105A2000FFFFFFFFFFFFFFFFFFFF03FF0FFFFFFF72
:105A3000FFFFFFFFFFFFFFFFFFFF03000FFFFFFF61
:105A4000FFFFFFFFFFFFFFFFFFFF03000FFFFFFF51
:105A5000FFFFFFFFFFFFFFFFFFFF01800FFFFFFFC3
:105A6000FFFFFFFFFFFFFFFFFFFF03FF0FFFFFFF32
:105A7000FFFFFFFFFFFFFFFFFFFF03FF0FFFFFFF22
:105A8000FFFFFFFFFFFFFFFFFFFF03FF0FFFFFFF12
:105A9000FFFFFFFFFFFFFFFFFFFF00000FFFFFFF04
:105AA000FFFFFFFFFFFFFFFFFFFF00780FFFFFFF7C
:105AB000FFFFFFFFFFFFFFFFFFFF01FE0FFFFFFFE5
:105AC000FFFFFFFFFFFFFFFFFFFF03FE0FFFFFFFD3
:105AD000FFFFFFFFFFFFFFFFFFFF03870FFFFFFF3A
:105AE000FFFFFFFFFFFFFFFFFFFF03030FFFFFFFAE
:105AF000FFFFFFFFFFFFFFFFFFFF03870FFFFFFF1A
:105B0000FFFFFFFFFFFFFFFFFFFF01FF0FFFFFFF93
:105B1000FFFFFFFFFFFFFFFFFFFF01FE0FFFFFFF84
:105B2000FFFFFFFFFFFFFFFFFFFF00780FFFFFFFFB
:105B3000FFFFFFFFFFFFFFFFFFFF00000FFFFFFF63
:105B4000FFFFFFFFFFFFFFFFFFFF03000FFFFFFF50
:105B5000FFFFFFFFFFFFFFFFFFFF03000FFFFFFF40
:105B6000FFFFFFFFFFFFFFFFFFFF03800FFFFFFFB0
:105B7000FFFFFFFFFFFFFFFFFFFF03FF0FFFFFFF21
:105B8000FFFFFFFFFFFFFFFFFFFF03FF0FFFFFFF11
:105B9000FFFFFFFFFFFFFFFFFFFF03FF0FFFFFFF01
:105BA000FFFFFFFFFFFFFFFFFFFF00000FFFFFFFF3
:105BB000FFFFFFFFFFFFFFFFFFFF03030FFFFFFFDD
:105BC000FFFFFFFFFFFFFFFFFFFF03030FFFFFFFCD
:105BD000FFFFFFFFFFFFFFFFFFFF0FFF0FFFFFFFB5
:105BE000FFFFFFFFFFFFFFFFFFFF0FFF0FFFFFFFA5
:105BF000FFFFFFFFFFFFFFFFFFFF0FFE0FFFFFFF96
:105C0000FFFFFFFFFFFFFFFFFFFF03000FFFFFFF8F
:105C1000FFFFFFFFFFFFFFFFFFFF00000FFFFFFF82
:105C2000FFFFFFFFFFFFFFFFFFFF03020FFFFFFF6D
:105C3000FFFFFFFFFFFFFFFFFFFF03030FFFFFFF5C
:105C4000FFFFFFFFFFFFFFFFFFFF03030FFFFFFF4C
:105C5000FFFFFFFFFFFFFFFFFFFF03030FFFFFFF3C
:105C6000FFFFFFFFFFFFFFFFFFFF03870FFFFFFFA8
:105C7000FFFFFFFFFFFFFFFFFFFF01FE0FFFFFFF23
:105C8000FFFFFFFFFFFFFFFFFFFF01FE0FFFFFFF13
:105C9000FFFFFFFFFFFFFFFFFFFF00780FFFFFFF8A
:105CA000FFFFFFFFFFFFFFFFFFFF00000FFFFFFFF2
:105CB000FFFFFFFFFFFFFFFFFFFF00700FFFFFFF72
:105CC000FFFFFFFFFFFFFFFFFFFF01F30FFFFFFFDE
:105CD000FFFFFFFFFFFFFFFFFFFF03F30FFFFFFFCC
:105CE000FFFFFFFFFFFFFFFFFFFF03330FFFFFFF7C
:105CF000FFFFFFFFFFFFFFFFFFFF03330FFFFFFF6C
:105D0000FFFFFFFFFFFFFFFFFFFF03B70FFFFFFFD7
:105D1000FFFFFFFFFFFFFFFFFFFF01FE0FFFFFFF82
:105D2000FFFFFFFFFFFFFFFFFFFF01FE0FFFFFFF72
:105D3000FFFFFFFFFFFFFFFFFFFF00780FFFFFFFE9
:105D4000FFFFFFFFFFFFFFFFFFFF00000FFFFFFF51
:105D5000FFFFFFFFFFFFFFFFFFFF00000FFFFFFF41
:105D6000FFFFFFFFFFFFFFFFFFFF3FFF0FFFFFFFF3
:105D7000FFFFFFFFFFFFFFFFFFFF3FFF0FFFFFFFE3
